{
  "contractName": "Borrower",
  "abi": [
    {
      "anonymous": false,
      "inputs": [
        {
          "indexed": false,
          "internalType": "string",
          "name": "_name",
          "type": "string"
        },
        {
          "indexed": false,
          "internalType": "uint256",
          "name": "_age",
          "type": "uint256"
        },
        {
          "indexed": false,
          "internalType": "string",
          "name": "_address",
          "type": "string"
        },
        {
          "indexed": false,
          "internalType": "string",
          "name": "_mobile",
          "type": "string"
        },
        {
          "indexed": false,
          "internalType": "string",
          "name": "_aadhar",
          "type": "string"
        },
        {
          "indexed": false,
          "internalType": "string",
          "name": "_clg",
          "type": "string"
        },
        {
          "indexed": false,
          "internalType": "address",
          "name": "sender",
          "type": "address"
        }
      ],
      "name": "BorrowerRegistered",
      "type": "event"
    },
    {
      "constant": true,
      "inputs": [
        {
          "internalType": "address",
          "name": "",
          "type": "address"
        }
      ],
      "name": "borrowers",
      "outputs": [
        {
          "internalType": "string",
          "name": "name",
          "type": "string"
        },
        {
          "internalType": "uint256",
          "name": "age",
          "type": "uint256"
        },
        {
          "internalType": "string",
          "name": "residential_address",
          "type": "string"
        },
        {
          "internalType": "string",
          "name": "mobile_no",
          "type": "string"
        },
        {
          "internalType": "string",
          "name": "aadhar_no",
          "type": "string"
        },
        {
          "internalType": "string",
          "name": "college_name",
          "type": "string"
        },
        {
          "internalType": "uint256",
          "name": "loanStatus",
          "type": "uint256"
        },
        {
          "internalType": "uint256",
          "name": "loanLimit",
          "type": "uint256"
        },
        {
          "internalType": "uint256",
          "name": "amountToPay",
          "type": "uint256"
        },
        {
          "internalType": "string",
          "name": "timeOfLoan",
          "type": "string"
        },
        {
          "internalType": "address",
          "name": "borrowersAddress",
          "type": "address"
        },
        {
          "internalType": "address",
          "name": "LendersAddress",
          "type": "address"
        }
      ],
      "payable": false,
      "stateMutability": "view",
      "type": "function"
    },
    {
      "constant": true,
      "inputs": [],
      "name": "borrowers_count",
      "outputs": [
        {
          "internalType": "uint256",
          "name": "",
          "type": "uint256"
        }
      ],
      "payable": false,
      "stateMutability": "view",
      "type": "function"
    },
    {
      "constant": true,
      "inputs": [
        {
          "internalType": "uint256",
          "name": "",
          "type": "uint256"
        }
      ],
      "name": "mapBorrowers",
      "outputs": [
        {
          "internalType": "address",
          "name": "",
          "type": "address"
        }
      ],
      "payable": false,
      "stateMutability": "view",
      "type": "function"
    },
    {
      "constant": false,
      "inputs": [
        {
          "internalType": "string",
          "name": "_name",
          "type": "string"
        },
        {
          "internalType": "uint256",
          "name": "_age",
          "type": "uint256"
        },
        {
          "internalType": "string",
          "name": "_address",
          "type": "string"
        },
        {
          "internalType": "string",
          "name": "_mobile",
          "type": "string"
        },
        {
          "internalType": "string",
          "name": "_aadhar",
          "type": "string"
        },
        {
          "internalType": "string",
          "name": "_clg",
          "type": "string"
        }
      ],
      "name": "Set_Borrower",
      "outputs": [],
      "payable": false,
      "stateMutability": "nonpayable",
      "type": "function"
    },
    {
      "constant": true,
      "inputs": [],
      "name": "Get_Borrower",
      "outputs": [
        {
          "internalType": "string",
          "name": "",
          "type": "string"
        },
        {
          "internalType": "uint256",
          "name": "",
          "type": "uint256"
        },
        {
          "internalType": "string",
          "name": "",
          "type": "string"
        },
        {
          "internalType": "string",
          "name": "",
          "type": "string"
        },
        {
          "internalType": "string",
          "name": "",
          "type": "string"
        },
        {
          "internalType": "string",
          "name": "",
          "type": "string"
        }
      ],
      "payable": false,
      "stateMutability": "view",
      "type": "function"
    },
    {
      "constant": true,
      "inputs": [],
      "name": "Login_Borrower",
      "outputs": [
        {
          "internalType": "bool",
          "name": "",
          "type": "bool"
        },
        {
          "internalType": "string",
          "name": "",
          "type": "string"
        }
      ],
      "payable": false,
      "stateMutability": "view",
      "type": "function"
    },
    {
      "constant": true,
      "inputs": [],
      "name": "Get_Loan_Limit",
      "outputs": [
        {
          "internalType": "uint256",
          "name": "",
          "type": "uint256"
        }
      ],
      "payable": false,
      "stateMutability": "view",
      "type": "function"
    },
    {
      "constant": false,
      "inputs": [
        {
          "internalType": "uint256",
          "name": "amount",
          "type": "uint256"
        }
      ],
      "name": "Loan_Request",
      "outputs": [],
      "payable": false,
      "stateMutability": "nonpayable",
      "type": "function"
    },
    {
      "constant": false,
      "inputs": [
        {
          "internalType": "string",
          "name": "_date",
          "type": "string"
        },
        {
          "internalType": "address",
          "name": "receiver",
          "type": "address"
        }
      ],
      "name": "Loan_Granted",
      "outputs": [],
      "payable": false,
      "stateMutability": "nonpayable",
      "type": "function"
    }
  ],
  "bytecode": "0x608060405234801561001057600080fd5b50611e08806100206000396000f3fe608060405234801561001057600080fd5b50600436106100935760003560e01c80639e2bbc56116100665780639e2bbc561461010d578063ab0e7bd11461013d578063bf5d50c414610159578063d4694a6914610194578063db0beaaf146101b757610093565b806303680a701461009857806304d6eb02146100b7578063409f8579146100d55780634e2a90e3146100f1575b600080fd5b6100a06101d5565b6040516100ae9291906119a1565b60405180910390f35b6100bf610312565b6040516100cc9190611c2b565b60405180910390f35b6100ef60048036036100ea9190810190611628565b610318565b005b61010b6004803603610106919081019061177d565b610445565b005b6101276004803603610122919081019061177d565b610562565b6040516101349190611986565b60405180910390f35b6101576004803603610152919081019061167c565b610595565b005b610173600480360361016e91908101906115ff565b610a89565b60405161018b9c9b9a99989796959493929190611ae7565b60405180910390f35b61019c610eb9565b6040516101ae969594939291906119d1565b60405180910390f35b6101bf611400565b6040516101cc9190611c2b565b60405180910390f35b600060606000339050600360008273ffffffffffffffffffffffffffffffffffffffff1673ffffffffffffffffffffffffffffffffffffffff16815260200190815260200160002060009054906101000a900460ff16600260008373ffffffffffffffffffffffffffffffffffffffff1673ffffffffffffffffffffffffffffffffffffffff168152602001908152602001600020600001808054600181600116156101000203166002900480601f0160208091040260200160405190810160405280929190818152602001828054600181600116156101000203166002900480156103025780601f106102d757610100808354040283529160200191610302565b820191906000526020600020905b8154815290600101906020018083116102e557829003601f168201915b5050505050905092509250509091565b60005481565b60008190506001600260008373ffffffffffffffffffffffffffffffffffffffff1673ffffffffffffffffffffffffffffffffffffffff16815260200190815260200160002060060154146103a2576040517f08c379a000000000000000000000000000000000000000000000000000000000815260040161039990611beb565b60405180910390fd5b60028060008373ffffffffffffffffffffffffffffffffffffffff1673ffffffffffffffffffffffffffffffffffffffff1681526020019081526020016000206006018190555082600260008373ffffffffffffffffffffffffffffffffffffffff1673ffffffffffffffffffffffffffffffffffffffff168152602001908152602001600020600901908051906020019061043f92919061144f565b50505050565b60003390506000600260008373ffffffffffffffffffffffffffffffffffffffff1673ffffffffffffffffffffffffffffffffffffffff16815260200190815260200160002060060154146104cf576040517f08c379a00000000000000000000000000000000000000000000000000000000081526004016104c690611bcb565b60405180910390fd5b6001600260008373ffffffffffffffffffffffffffffffffffffffff1673ffffffffffffffffffffffffffffffffffffffff1681526020019081526020016000206006018190555081600260008373ffffffffffffffffffffffffffffffffffffffff1673ffffffffffffffffffffffffffffffffffffffff168152602001908152602001600020600801819055505050565b60016020528060005260406000206000915054906101000a900473ffffffffffffffffffffffffffffffffffffffff1681565b600033905060001515600360008373ffffffffffffffffffffffffffffffffffffffff1673ffffffffffffffffffffffffffffffffffffffff16815260200190815260200160002060009054906101000a900460ff1615151461062d576040517f08c379a000000000000000000000000000000000000000000000000000000000815260040161062490611c0b565b60405180910390fd5b86600260008373ffffffffffffffffffffffffffffffffffffffff1673ffffffffffffffffffffffffffffffffffffffff168152602001908152602001600020600001908051906020019061068392919061144f565b5085600260008373ffffffffffffffffffffffffffffffffffffffff1673ffffffffffffffffffffffffffffffffffffffff1681526020019081526020016000206001018190555084600260008373ffffffffffffffffffffffffffffffffffffffff1673ffffffffffffffffffffffffffffffffffffffff168152602001908152602001600020600201908051906020019061072192919061144f565b5083600260008373ffffffffffffffffffffffffffffffffffffffff1673ffffffffffffffffffffffffffffffffffffffff168152602001908152602001600020600301908051906020019061077892919061144f565b5082600260008373ffffffffffffffffffffffffffffffffffffffff1673ffffffffffffffffffffffffffffffffffffffff16815260200190815260200160002060040190805190602001906107cf92919061144f565b5081600260008373ffffffffffffffffffffffffffffffffffffffff1673ffffffffffffffffffffffffffffffffffffffff168152602001908152602001600020600501908051906020019061082692919061144f565b506000600260008373ffffffffffffffffffffffffffffffffffffffff1673ffffffffffffffffffffffffffffffffffffffff168152602001908152602001600020600601819055506101f4600260008373ffffffffffffffffffffffffffffffffffffffff1673ffffffffffffffffffffffffffffffffffffffff168152602001908152602001600020600701819055506000600260008373ffffffffffffffffffffffffffffffffffffffff1673ffffffffffffffffffffffffffffffffffffffff1681526020019081526020016000206008018190555080600260008373ffffffffffffffffffffffffffffffffffffffff1673ffffffffffffffffffffffffffffffffffffffff168152602001908152602001600020600a0160006101000a81548173ffffffffffffffffffffffffffffffffffffffff021916908373ffffffffffffffffffffffffffffffffffffffff1602179055507f1ea37e6ac4a0aeb6ac3ee095cc42e5a7617486d5d66dda91a72d4efaffbf505f878787878787336040516109bc9796959493929190611a55565b60405180910390a16001600360008373ffffffffffffffffffffffffffffffffffffffff1673ffffffffffffffffffffffffffffffffffffffff16815260200190815260200160002060006101000a81548160ff02191690831515021790555080600160008054815260200190815260200160002060006101000a81548173ffffffffffffffffffffffffffffffffffffffff021916908373ffffffffffffffffffffffffffffffffffffffff160217905550600080815480929190600101919050555050505050505050565b6002602052806000526040600020600091509050806000018054600181600116156101000203166002900480601f016020809104026020016040519081016040528092919081815260200182805460018160011615610100020316600290048015610b355780601f10610b0a57610100808354040283529160200191610b35565b820191906000526020600020905b815481529060010190602001808311610b1857829003601f168201915b505050505090806001015490806002018054600181600116156101000203166002900480601f016020809104026020016040519081016040528092919081815260200182805460018160011615610100020316600290048015610bd95780601f10610bae57610100808354040283529160200191610bd9565b820191906000526020600020905b815481529060010190602001808311610bbc57829003601f168201915b505050505090806003018054600181600116156101000203166002900480601f016020809104026020016040519081016040528092919081815260200182805460018160011615610100020316600290048015610c775780601f10610c4c57610100808354040283529160200191610c77565b820191906000526020600020905b815481529060010190602001808311610c5a57829003601f168201915b505050505090806004018054600181600116156101000203166002900480601f016020809104026020016040519081016040528092919081815260200182805460018160011615610100020316600290048015610d155780601f10610cea57610100808354040283529160200191610d15565b820191906000526020600020905b815481529060010190602001808311610cf857829003601f168201915b505050505090806005018054600181600116156101000203166002900480601f016020809104026020016040519081016040528092919081815260200182805460018160011615610100020316600290048015610db35780601f10610d8857610100808354040283529160200191610db3565b820191906000526020600020905b815481529060010190602001808311610d9657829003601f168201915b505050505090806006015490806007015490806008015490806009018054600181600116156101000203166002900480601f016020809104026020016040519081016040528092919081815260200182805460018160011615610100020316600290048015610e635780601f10610e3857610100808354040283529160200191610e63565b820191906000526020600020905b815481529060010190602001808311610e4657829003601f168201915b50505050509080600a0160009054906101000a900473ffffffffffffffffffffffffffffffffffffffff169080600b0160009054906101000a900473ffffffffffffffffffffffffffffffffffffffff1690508c565b606060006060806060806000339050610ed06114cf565b600260008373ffffffffffffffffffffffffffffffffffffffff1673ffffffffffffffffffffffffffffffffffffffff16815260200190815260200160002060405180610180016040529081600082018054600181600116156101000203166002900480601f016020809104026020016040519081016040528092919081815260200182805460018160011615610100020316600290048015610fb45780601f10610f8957610100808354040283529160200191610fb4565b820191906000526020600020905b815481529060010190602001808311610f9757829003601f168201915b5050505050815260200160018201548152602001600282018054600181600116156101000203166002900480601f0160208091040260200160405190810160405280929190818152602001828054600181600116156101000203166002900480156110605780601f1061103557610100808354040283529160200191611060565b820191906000526020600020905b81548152906001019060200180831161104357829003601f168201915b50505050508152602001600382018054600181600116156101000203166002900480601f0160208091040260200160405190810160405280929190818152602001828054600181600116156101000203166002900480156111025780601f106110d757610100808354040283529160200191611102565b820191906000526020600020905b8154815290600101906020018083116110e557829003601f168201915b50505050508152602001600482018054600181600116156101000203166002900480601f0160208091040260200160405190810160405280929190818152602001828054600181600116156101000203166002900480156111a45780601f10611179576101008083540402835291602001916111a4565b820191906000526020600020905b81548152906001019060200180831161118757829003601f168201915b50505050508152602001600582018054600181600116156101000203166002900480601f0160208091040260200160405190810160405280929190818152602001828054600181600116156101000203166002900480156112465780601f1061121b57610100808354040283529160200191611246565b820191906000526020600020905b81548152906001019060200180831161122957829003601f168201915b50505050508152602001600682015481526020016007820154815260200160088201548152602001600982018054600181600116156101000203166002900480601f0160208091040260200160405190810160405280929190818152602001828054600181600116156101000203166002900480156113065780601f106112db57610100808354040283529160200191611306565b820191906000526020600020905b8154815290600101906020018083116112e957829003601f168201915b50505050508152602001600a820160009054906101000a900473ffffffffffffffffffffffffffffffffffffffff1673ffffffffffffffffffffffffffffffffffffffff1673ffffffffffffffffffffffffffffffffffffffff168152602001600b820160009054906101000a900473ffffffffffffffffffffffffffffffffffffffff1673ffffffffffffffffffffffffffffffffffffffff1673ffffffffffffffffffffffffffffffffffffffff16815250509050806000015181602001518260400151836060015184608001518560a001518595508393508292508191508090509750975097509750975097505050909192939495565b600080339050600260008273ffffffffffffffffffffffffffffffffffffffff1673ffffffffffffffffffffffffffffffffffffffff1681526020019081526020016000206007015491505090565b828054600181600116156101000203166002900490600052602060002090601f016020900481019282601f1061149057805160ff19168380011785556114be565b828001600101855582156114be579182015b828111156114bd5782518255916020019190600101906114a2565b5b5090506114cb919061155c565b5090565b60405180610180016040528060608152602001600081526020016060815260200160608152602001606081526020016060815260200160008152602001600081526020016000815260200160608152602001600073ffffffffffffffffffffffffffffffffffffffff168152602001600073ffffffffffffffffffffffffffffffffffffffff1681525090565b61157e91905b8082111561157a576000816000905550600101611562565b5090565b90565b60008135905061159081611d97565b92915050565b600082601f8301126115a757600080fd5b81356115ba6115b582611c73565b611c46565b915080825260208301602083018583830111156115d657600080fd5b6115e1838284611d44565b50505092915050565b6000813590506115f981611dae565b92915050565b60006020828403121561161157600080fd5b600061161f84828501611581565b91505092915050565b6000806040838503121561163b57600080fd5b600083013567ffffffffffffffff81111561165557600080fd5b61166185828601611596565b925050602061167285828601611581565b9150509250929050565b60008060008060008060c0878903121561169557600080fd5b600087013567ffffffffffffffff8111156116af57600080fd5b6116bb89828a01611596565b96505060206116cc89828a016115ea565b955050604087013567ffffffffffffffff8111156116e957600080fd5b6116f589828a01611596565b945050606087013567ffffffffffffffff81111561171257600080fd5b61171e89828a01611596565b935050608087013567ffffffffffffffff81111561173b57600080fd5b61174789828a01611596565b92505060a087013567ffffffffffffffff81111561176457600080fd5b61177089828a01611596565b9150509295509295509295565b60006020828403121561178f57600080fd5b600061179d848285016115ea565b91505092915050565b6117af81611d0e565b82525050565b6117be81611cc6565b82525050565b6117cd81611cd8565b82525050565b60006117de82611caa565b6117e88185611cb5565b93506117f8818560208601611d53565b61180181611d86565b840191505092915050565b600061181782611c9f565b6118218185611cb5565b9350611831818560208601611d53565b61183a81611d86565b840191505092915050565b6000611852604583611cb5565b91507f596f752063616e6e6f742072657175657374206e6577206c6f616e206265666f60008301527f72652072657475726e696e67207468652070726576696f7573206c6f616e206160208301527f6d6f756e740000000000000000000000000000000000000000000000000000006040830152606082019050919050565b60006118de601d83611cb5565b91507f4c6f616e2068617320616c7265616479206265656e206772616e7465640000006000830152602082019050919050565b600061191e602b83611cb5565b91507f596f75206861766520616c72656164792072656769737465726564206f6e206f60008301527f757220706c6174666f726d0000000000000000000000000000000000000000006020830152604082019050919050565b61198081611d04565b82525050565b600060208201905061199b60008301846117b5565b92915050565b60006040820190506119b660008301856117c4565b81810360208301526119c881846117d3565b90509392505050565b600060c08201905081810360008301526119eb81896117d3565b90506119fa6020830188611977565b8181036040830152611a0c81876117d3565b90508181036060830152611a2081866117d3565b90508181036080830152611a3481856117d3565b905081810360a0830152611a4881846117d3565b9050979650505050505050565b600060e0820190508181036000830152611a6f818a6117d3565b9050611a7e6020830189611977565b8181036040830152611a9081886117d3565b90508181036060830152611aa481876117d3565b90508181036080830152611ab881866117d3565b905081810360a0830152611acc81856117d3565b9050611adb60c08301846117a6565b98975050505050505050565b6000610180820190508181036000830152611b02818f61180c565b9050611b11602083018e611977565b8181036040830152611b23818d61180c565b90508181036060830152611b37818c61180c565b90508181036080830152611b4b818b61180c565b905081810360a0830152611b5f818a61180c565b9050611b6e60c0830189611977565b611b7b60e0830188611977565b611b89610100830187611977565b818103610120830152611b9c818661180c565b9050611bac6101408301856117b5565b611bba6101608301846117b5565b9d9c50505050505050505050505050565b60006020820190508181036000830152611be481611845565b9050919050565b60006020820190508181036000830152611c04816118d1565b9050919050565b60006020820190508181036000830152611c2481611911565b9050919050565b6000602082019050611c406000830184611977565b92915050565b6000604051905081810181811067ffffffffffffffff82111715611c6957600080fd5b8060405250919050565b600067ffffffffffffffff821115611c8a57600080fd5b601f19601f8301169050602081019050919050565b600081519050919050565b600081519050919050565b600082825260208201905092915050565b6000611cd182611ce4565b9050919050565b60008115159050919050565b600073ffffffffffffffffffffffffffffffffffffffff82169050919050565b6000819050919050565b6000611d1982611d20565b9050919050565b6000611d2b82611d32565b9050919050565b6000611d3d82611ce4565b9050919050565b82818337600083830152505050565b60005b83811015611d71578082015181840152602081019050611d56565b83811115611d80576000848401525b50505050565b6000601f19601f8301169050919050565b611da081611cc6565b8114611dab57600080fd5b50565b611db781611d04565b8114611dc257600080fd5b5056fea365627a7a723158203c17ad92844e54ca7616f3102a8839397459d4508a256e60da81f2b9022dfcb06c6578706572696d656e74616cf564736f6c63430005100040",
  "source": "/*\r\n    Handcrafted by: Shubham Gupta\r\n\r\n    About: This contract registers the borrower and shows the registered information on user's profile page.\r\n*/\r\n\r\npragma solidity >=0.4.17 <0.7.0;\r\npragma experimental ABIEncoderV2;\r\n\r\ncontract Borrower {\r\n\r\n    struct Borrower_Info {\r\n\r\n        string name;\r\n        uint age;\r\n        string residential_address;\r\n        string mobile_no;\r\n        string aadhar_no;\r\n        string college_name;\r\n        \r\n        uint loanStatus;          //0 -> inactive, 1 -> active, 2 -> granted\r\n        uint loanLimit;             //It is initialized to 500.\r\n        uint amountToPay;           //It is initialized to 0.\r\n        string timeOfLoan;\r\n        address borrowersAddress;    //Used to set the id of the Accept button\r\n        address LendersAddress;\r\n    }   \r\n\r\n    event BorrowerRegistered(string _name, uint _age, string _address, string _mobile, string _aadhar, string _clg, address sender);\r\n\r\n\r\n    uint public borrowers_count;\r\n    mapping (uint => address) public mapBorrowers;\r\n    mapping (address => Borrower_Info) public borrowers;\r\n    mapping(address => bool) borrower_accounts; \r\n\r\n    //This function is used to save the information entered by the borrower during registraton.\r\n    function Set_Borrower (string memory _name, uint _age, string memory _address, string memory _mobile, string memory _aadhar, string memory _clg) public {\r\n\r\n        address uaddress = msg.sender;\r\n\r\n        require(borrower_accounts[uaddress] == false, \"You have already registered on our platform\");\r\n\r\n        borrowers[uaddress].name = _name;\r\n        borrowers[uaddress].age = _age;\r\n        borrowers[uaddress].residential_address = _address;\r\n        borrowers[uaddress].mobile_no = _mobile;\r\n        borrowers[uaddress].aadhar_no = _aadhar;\r\n        borrowers[uaddress].college_name = _clg;\r\n\r\n        borrowers[uaddress].loanStatus = 0;\r\n        borrowers[uaddress].loanLimit = 500;\r\n        borrowers[uaddress].amountToPay = 0;\r\n        borrowers[uaddress].borrowersAddress = uaddress;\r\n\r\n        emit BorrowerRegistered (_name, _age, _address, _mobile, _aadhar, _clg, msg.sender);\r\n\r\n        borrower_accounts[uaddress] = true;\r\n        mapBorrowers[borrowers_count] = uaddress;\r\n        borrowers_count ++;\r\n    }\r\n\r\n    //This function returns the stored information through address\r\n    function Get_Borrower () view public returns (string memory, uint, string memory, string memory, string memory, string memory) {\r\n        address uaddress = msg.sender;\r\n        Borrower_Info memory borrower = borrowers[uaddress];\r\n\r\n        return (borrower.name, borrower.age, borrower.residential_address, borrower.mobile_no, borrower.aadhar_no, borrower.college_name);\r\n    }\r\n\r\n    function Login_Borrower() view public returns (bool, string memory) {\r\n\r\n        address uaddress = msg.sender;\r\n        return (borrower_accounts[uaddress], borrowers[uaddress].name);\r\n    }\r\n\r\n    function Get_Loan_Limit () view public returns (uint) {\r\n        address uaddress = msg.sender;\r\n\r\n        return borrowers[uaddress].loanLimit;\r\n    }\r\n\r\n    function Loan_Request ( uint amount) public {\r\n        address uaddress = msg.sender;\r\n\r\n        require(borrowers[uaddress].loanStatus == 0, \"You cannot request new loan before returning the previous loan amount\");\r\n\r\n        borrowers[uaddress].loanStatus = 1;\r\n        borrowers[uaddress].amountToPay = amount;\r\n    }\r\n\r\n    function Loan_Granted (string memory _date, address receiver) public {\r\n        address uaddress = address(receiver);\r\n\r\n        require (borrowers[uaddress].loanStatus == 1, \"Loan has already been granted\");\r\n\r\n        borrowers[uaddress].loanStatus = 2;\r\n        borrowers[uaddress].timeOfLoan = _date;\r\n    }\r\n}\r\n",
  "sourcePath": "C:/Users/hp/Desktop/lendingMarketplace/contracts/Borrower.sol",
  "compiler": {
    "name": "solc",
    "version": "0.5.16+commit.9c3226ce.Emscripten.clang"
  },
  "schemaVersion": "3.0.22",
  "updatedAt": "2020-04-21T08:50:16.844Z",
  "networkType": "ethereum",
  "devdoc": {
    "methods": {}
  },
  "userdoc": {
    "methods": {}
  }
}