{
  "contractName": "Borrower",
  "abi": [
    {
      "anonymous": false,
      "inputs": [
        {
          "indexed": false,
          "internalType": "string",
          "name": "_name",
          "type": "string"
        },
        {
          "indexed": false,
          "internalType": "uint256",
          "name": "_age",
          "type": "uint256"
        },
        {
          "indexed": false,
          "internalType": "string",
          "name": "_address",
          "type": "string"
        },
        {
          "indexed": false,
          "internalType": "string",
          "name": "_mobile",
          "type": "string"
        },
        {
          "indexed": false,
          "internalType": "string",
          "name": "_aadhar",
          "type": "string"
        },
        {
          "indexed": false,
          "internalType": "string",
          "name": "_clg",
          "type": "string"
        },
        {
          "indexed": false,
          "internalType": "address",
          "name": "sender",
          "type": "address"
        }
      ],
      "name": "BorrowerRegistered",
      "type": "event"
    },
    {
      "constant": true,
      "inputs": [
        {
          "internalType": "address",
          "name": "",
          "type": "address"
        }
      ],
      "name": "borrowers",
      "outputs": [
        {
          "internalType": "string",
          "name": "name",
          "type": "string"
        },
        {
          "internalType": "uint256",
          "name": "age",
          "type": "uint256"
        },
        {
          "internalType": "string",
          "name": "residential_address",
          "type": "string"
        },
        {
          "internalType": "string",
          "name": "mobile_no",
          "type": "string"
        },
        {
          "internalType": "string",
          "name": "aadhar_no",
          "type": "string"
        },
        {
          "internalType": "string",
          "name": "college_name",
          "type": "string"
        },
        {
          "internalType": "uint256",
          "name": "loanStatus",
          "type": "uint256"
        },
        {
          "internalType": "uint256",
          "name": "loanLimit",
          "type": "uint256"
        },
        {
          "internalType": "uint256",
          "name": "amountToPay",
          "type": "uint256"
        },
        {
          "internalType": "string",
          "name": "timeOfLoan",
          "type": "string"
        },
        {
          "internalType": "address",
          "name": "borrowersAddress",
          "type": "address"
        },
        {
          "internalType": "address",
          "name": "lendersAddress",
          "type": "address"
        }
      ],
      "payable": false,
      "stateMutability": "view",
      "type": "function"
    },
    {
      "constant": true,
      "inputs": [],
      "name": "borrowers_count",
      "outputs": [
        {
          "internalType": "uint256",
          "name": "",
          "type": "uint256"
        }
      ],
      "payable": false,
      "stateMutability": "view",
      "type": "function"
    },
    {
      "constant": true,
      "inputs": [
        {
          "internalType": "uint256",
          "name": "",
          "type": "uint256"
        }
      ],
      "name": "mapBorrowers",
      "outputs": [
        {
          "internalType": "address",
          "name": "",
          "type": "address"
        }
      ],
      "payable": false,
      "stateMutability": "view",
      "type": "function"
    },
    {
      "constant": false,
      "inputs": [
        {
          "internalType": "string",
          "name": "_name",
          "type": "string"
        },
        {
          "internalType": "uint256",
          "name": "_age",
          "type": "uint256"
        },
        {
          "internalType": "string",
          "name": "_address",
          "type": "string"
        },
        {
          "internalType": "string",
          "name": "_mobile",
          "type": "string"
        },
        {
          "internalType": "string",
          "name": "_aadhar",
          "type": "string"
        },
        {
          "internalType": "string",
          "name": "_clg",
          "type": "string"
        }
      ],
      "name": "Set_Borrower",
      "outputs": [],
      "payable": false,
      "stateMutability": "nonpayable",
      "type": "function"
    },
    {
      "constant": true,
      "inputs": [],
      "name": "Get_Borrower",
      "outputs": [
        {
          "internalType": "string",
          "name": "",
          "type": "string"
        },
        {
          "internalType": "uint256",
          "name": "",
          "type": "uint256"
        },
        {
          "internalType": "string",
          "name": "",
          "type": "string"
        },
        {
          "internalType": "string",
          "name": "",
          "type": "string"
        },
        {
          "internalType": "string",
          "name": "",
          "type": "string"
        },
        {
          "internalType": "string",
          "name": "",
          "type": "string"
        }
      ],
      "payable": false,
      "stateMutability": "view",
      "type": "function"
    },
    {
      "constant": true,
      "inputs": [],
      "name": "Login_Borrower",
      "outputs": [
        {
          "internalType": "bool",
          "name": "",
          "type": "bool"
        },
        {
          "internalType": "string",
          "name": "",
          "type": "string"
        }
      ],
      "payable": false,
      "stateMutability": "view",
      "type": "function"
    },
    {
      "constant": true,
      "inputs": [],
      "name": "Get_Loan_Limit",
      "outputs": [
        {
          "internalType": "uint256",
          "name": "",
          "type": "uint256"
        }
      ],
      "payable": false,
      "stateMutability": "view",
      "type": "function"
    },
    {
      "constant": false,
      "inputs": [
        {
          "internalType": "uint256",
          "name": "amount",
          "type": "uint256"
        }
      ],
      "name": "Loan_Request",
      "outputs": [],
      "payable": false,
      "stateMutability": "nonpayable",
      "type": "function"
    },
    {
      "constant": false,
      "inputs": [
        {
          "internalType": "string",
          "name": "_date",
          "type": "string"
        },
        {
          "internalType": "address",
          "name": "receiver",
          "type": "address"
        }
      ],
      "name": "Loan_Granted",
      "outputs": [],
      "payable": false,
      "stateMutability": "nonpayable",
      "type": "function"
    },
    {
      "constant": false,
      "inputs": [],
      "name": "Loan_Repay",
      "outputs": [],
      "payable": false,
      "stateMutability": "nonpayable",
      "type": "function"
    }
  ],
  "bytecode": "0x608060405234801561001057600080fd5b50612147806100206000396000f3fe608060405234801561001057600080fd5b506004361061009e5760003560e01c80639e2bbc56116100665780639e2bbc5614610122578063ab0e7bd114610152578063bf5d50c41461016e578063d4694a69146101a9578063db0beaaf146101cc5761009e565b806303680a70146100a357806304d6eb02146100c2578063409f8579146100e05780634e2a90e3146100fc5780634fa5138714610118575b600080fd5b6100ab6101ea565b6040516100b9929190611ce0565b60405180910390f35b6100ca610327565b6040516100d79190611f6a565b60405180910390f35b6100fa60048036036100f59190810190611967565b61032d565b005b61011660048036036101119190810190611abc565b6104dc565b005b6101206105f9565b005b61013c60048036036101379190810190611abc565b6108a1565b6040516101499190611cc5565b60405180910390f35b61016c600480360361016791908101906119bb565b6108d4565b005b6101886004803603610183919081019061193e565b610dc8565b6040516101a09c9b9a99989796959493929190611e26565b60405180910390f35b6101b16111f8565b6040516101c396959493929190611d10565b60405180910390f35b6101d461173f565b6040516101e19190611f6a565b60405180910390f35b600060606000339050600360008273ffffffffffffffffffffffffffffffffffffffff1673ffffffffffffffffffffffffffffffffffffffff16815260200190815260200160002060009054906101000a900460ff16600260008373ffffffffffffffffffffffffffffffffffffffff1673ffffffffffffffffffffffffffffffffffffffff168152602001908152602001600020600001808054600181600116156101000203166002900480601f0160208091040260200160405190810160405280929190818152602001828054600181600116156101000203166002900480156103175780601f106102ec57610100808354040283529160200191610317565b820191906000526020600020905b8154815290600101906020018083116102fa57829003601f168201915b5050505050905092509250509091565b60005481565b60008190506001600260008373ffffffffffffffffffffffffffffffffffffffff1673ffffffffffffffffffffffffffffffffffffffff1681526020019081526020016000206006015411156103b8576040517f08c379a00000000000000000000000000000000000000000000000000000000081526004016103af90611f2a565b60405180910390fd5b60028060008373ffffffffffffffffffffffffffffffffffffffff1673ffffffffffffffffffffffffffffffffffffffff1681526020019081526020016000206006018190555082600260008373ffffffffffffffffffffffffffffffffffffffff1673ffffffffffffffffffffffffffffffffffffffff168152602001908152602001600020600901908051906020019061045592919061178e565b5033600260008373ffffffffffffffffffffffffffffffffffffffff1673ffffffffffffffffffffffffffffffffffffffff168152602001908152602001600020600b0160006101000a81548173ffffffffffffffffffffffffffffffffffffffff021916908373ffffffffffffffffffffffffffffffffffffffff160217905550505050565b60003390506000600260008373ffffffffffffffffffffffffffffffffffffffff1673ffffffffffffffffffffffffffffffffffffffff1681526020019081526020016000206006015414610566576040517f08c379a000000000000000000000000000000000000000000000000000000000815260040161055d90611f0a565b60405180910390fd5b6001600260008373ffffffffffffffffffffffffffffffffffffffff1673ffffffffffffffffffffffffffffffffffffffff1681526020019081526020016000206006018190555081600260008373ffffffffffffffffffffffffffffffffffffffff1673ffffffffffffffffffffffffffffffffffffffff168152602001908152602001600020600801819055505050565b60003390506000600260008373ffffffffffffffffffffffffffffffffffffffff1673ffffffffffffffffffffffffffffffffffffffff1681526020019081526020016000206007015490506000600260008473ffffffffffffffffffffffffffffffffffffffff1673ffffffffffffffffffffffffffffffffffffffff1681526020019081526020016000206006018190555060405180602001604052806000815250600260008473ffffffffffffffffffffffffffffffffffffffff1673ffffffffffffffffffffffffffffffffffffffff16815260200190815260200160002060090190805190602001906106f292919061178e565b506000600260008473ffffffffffffffffffffffffffffffffffffffff1673ffffffffffffffffffffffffffffffffffffffff168152602001908152602001600020600b0160006101000a81548173ffffffffffffffffffffffffffffffffffffffff021916908373ffffffffffffffffffffffffffffffffffffffff1602179055506000600260008473ffffffffffffffffffffffffffffffffffffffff1673ffffffffffffffffffffffffffffffffffffffff1681526020019081526020016000206008018190555060028102600260008473ffffffffffffffffffffffffffffffffffffffff1673ffffffffffffffffffffffffffffffffffffffff16815260200190815260200160002060070181905550611388600260008473ffffffffffffffffffffffffffffffffffffffff1673ffffffffffffffffffffffffffffffffffffffff16815260200190815260200160002060070154111561089d57611388600260008473ffffffffffffffffffffffffffffffffffffffff1673ffffffffffffffffffffffffffffffffffffffff168152602001908152602001600020600701819055505b5050565b60016020528060005260406000206000915054906101000a900473ffffffffffffffffffffffffffffffffffffffff1681565b600033905060001515600360008373ffffffffffffffffffffffffffffffffffffffff1673ffffffffffffffffffffffffffffffffffffffff16815260200190815260200160002060009054906101000a900460ff1615151461096c576040517f08c379a000000000000000000000000000000000000000000000000000000000815260040161096390611f4a565b60405180910390fd5b86600260008373ffffffffffffffffffffffffffffffffffffffff1673ffffffffffffffffffffffffffffffffffffffff16815260200190815260200160002060000190805190602001906109c292919061178e565b5085600260008373ffffffffffffffffffffffffffffffffffffffff1673ffffffffffffffffffffffffffffffffffffffff1681526020019081526020016000206001018190555084600260008373ffffffffffffffffffffffffffffffffffffffff1673ffffffffffffffffffffffffffffffffffffffff1681526020019081526020016000206002019080519060200190610a6092919061178e565b5083600260008373ffffffffffffffffffffffffffffffffffffffff1673ffffffffffffffffffffffffffffffffffffffff1681526020019081526020016000206003019080519060200190610ab792919061178e565b5082600260008373ffffffffffffffffffffffffffffffffffffffff1673ffffffffffffffffffffffffffffffffffffffff1681526020019081526020016000206004019080519060200190610b0e92919061178e565b5081600260008373ffffffffffffffffffffffffffffffffffffffff1673ffffffffffffffffffffffffffffffffffffffff1681526020019081526020016000206005019080519060200190610b6592919061178e565b506000600260008373ffffffffffffffffffffffffffffffffffffffff1673ffffffffffffffffffffffffffffffffffffffff168152602001908152602001600020600601819055506101f4600260008373ffffffffffffffffffffffffffffffffffffffff1673ffffffffffffffffffffffffffffffffffffffff168152602001908152602001600020600701819055506000600260008373ffffffffffffffffffffffffffffffffffffffff1673ffffffffffffffffffffffffffffffffffffffff1681526020019081526020016000206008018190555080600260008373ffffffffffffffffffffffffffffffffffffffff1673ffffffffffffffffffffffffffffffffffffffff168152602001908152602001600020600a0160006101000a81548173ffffffffffffffffffffffffffffffffffffffff021916908373ffffffffffffffffffffffffffffffffffffffff1602179055507f1ea37e6ac4a0aeb6ac3ee095cc42e5a7617486d5d66dda91a72d4efaffbf505f87878787878733604051610cfb9796959493929190611d94565b60405180910390a16001600360008373ffffffffffffffffffffffffffffffffffffffff1673ffffffffffffffffffffffffffffffffffffffff16815260200190815260200160002060006101000a81548160ff02191690831515021790555080600160008054815260200190815260200160002060006101000a81548173ffffffffffffffffffffffffffffffffffffffff021916908373ffffffffffffffffffffffffffffffffffffffff160217905550600080815480929190600101919050555050505050505050565b6002602052806000526040600020600091509050806000018054600181600116156101000203166002900480601f016020809104026020016040519081016040528092919081815260200182805460018160011615610100020316600290048015610e745780601f10610e4957610100808354040283529160200191610e74565b820191906000526020600020905b815481529060010190602001808311610e5757829003601f168201915b505050505090806001015490806002018054600181600116156101000203166002900480601f016020809104026020016040519081016040528092919081815260200182805460018160011615610100020316600290048015610f185780601f10610eed57610100808354040283529160200191610f18565b820191906000526020600020905b815481529060010190602001808311610efb57829003601f168201915b505050505090806003018054600181600116156101000203166002900480601f016020809104026020016040519081016040528092919081815260200182805460018160011615610100020316600290048015610fb65780601f10610f8b57610100808354040283529160200191610fb6565b820191906000526020600020905b815481529060010190602001808311610f9957829003601f168201915b505050505090806004018054600181600116156101000203166002900480601f0160208091040260200160405190810160405280929190818152602001828054600181600116156101000203166002900480156110545780601f1061102957610100808354040283529160200191611054565b820191906000526020600020905b81548152906001019060200180831161103757829003601f168201915b505050505090806005018054600181600116156101000203166002900480601f0160208091040260200160405190810160405280929190818152602001828054600181600116156101000203166002900480156110f25780601f106110c7576101008083540402835291602001916110f2565b820191906000526020600020905b8154815290600101906020018083116110d557829003601f168201915b505050505090806006015490806007015490806008015490806009018054600181600116156101000203166002900480601f0160208091040260200160405190810160405280929190818152602001828054600181600116156101000203166002900480156111a25780601f10611177576101008083540402835291602001916111a2565b820191906000526020600020905b81548152906001019060200180831161118557829003601f168201915b50505050509080600a0160009054906101000a900473ffffffffffffffffffffffffffffffffffffffff169080600b0160009054906101000a900473ffffffffffffffffffffffffffffffffffffffff1690508c565b60606000606080606080600033905061120f61180e565b600260008373ffffffffffffffffffffffffffffffffffffffff1673ffffffffffffffffffffffffffffffffffffffff16815260200190815260200160002060405180610180016040529081600082018054600181600116156101000203166002900480601f0160208091040260200160405190810160405280929190818152602001828054600181600116156101000203166002900480156112f35780601f106112c8576101008083540402835291602001916112f3565b820191906000526020600020905b8154815290600101906020018083116112d657829003601f168201915b5050505050815260200160018201548152602001600282018054600181600116156101000203166002900480601f01602080910402602001604051908101604052809291908181526020018280546001816001161561010002031660029004801561139f5780601f106113745761010080835404028352916020019161139f565b820191906000526020600020905b81548152906001019060200180831161138257829003601f168201915b50505050508152602001600382018054600181600116156101000203166002900480601f0160208091040260200160405190810160405280929190818152602001828054600181600116156101000203166002900480156114415780601f1061141657610100808354040283529160200191611441565b820191906000526020600020905b81548152906001019060200180831161142457829003601f168201915b50505050508152602001600482018054600181600116156101000203166002900480601f0160208091040260200160405190810160405280929190818152602001828054600181600116156101000203166002900480156114e35780601f106114b8576101008083540402835291602001916114e3565b820191906000526020600020905b8154815290600101906020018083116114c657829003601f168201915b50505050508152602001600582018054600181600116156101000203166002900480601f0160208091040260200160405190810160405280929190818152602001828054600181600116156101000203166002900480156115855780601f1061155a57610100808354040283529160200191611585565b820191906000526020600020905b81548152906001019060200180831161156857829003601f168201915b50505050508152602001600682015481526020016007820154815260200160088201548152602001600982018054600181600116156101000203166002900480601f0160208091040260200160405190810160405280929190818152602001828054600181600116156101000203166002900480156116455780601f1061161a57610100808354040283529160200191611645565b820191906000526020600020905b81548152906001019060200180831161162857829003601f168201915b50505050508152602001600a820160009054906101000a900473ffffffffffffffffffffffffffffffffffffffff1673ffffffffffffffffffffffffffffffffffffffff1673ffffffffffffffffffffffffffffffffffffffff168152602001600b820160009054906101000a900473ffffffffffffffffffffffffffffffffffffffff1673ffffffffffffffffffffffffffffffffffffffff1673ffffffffffffffffffffffffffffffffffffffff16815250509050806000015181602001518260400151836060015184608001518560a001518595508393508292508191508090509750975097509750975097505050909192939495565b600080339050600260008273ffffffffffffffffffffffffffffffffffffffff1673ffffffffffffffffffffffffffffffffffffffff1681526020019081526020016000206007015491505090565b828054600181600116156101000203166002900490600052602060002090601f016020900481019282601f106117cf57805160ff19168380011785556117fd565b828001600101855582156117fd579182015b828111156117fc5782518255916020019190600101906117e1565b5b50905061180a919061189b565b5090565b60405180610180016040528060608152602001600081526020016060815260200160608152602001606081526020016060815260200160008152602001600081526020016000815260200160608152602001600073ffffffffffffffffffffffffffffffffffffffff168152602001600073ffffffffffffffffffffffffffffffffffffffff1681525090565b6118bd91905b808211156118b95760008160009055506001016118a1565b5090565b90565b6000813590506118cf816120d6565b92915050565b600082601f8301126118e657600080fd5b81356118f96118f482611fb2565b611f85565b9150808252602083016020830185838301111561191557600080fd5b611920838284612083565b50505092915050565b600081359050611938816120ed565b92915050565b60006020828403121561195057600080fd5b600061195e848285016118c0565b91505092915050565b6000806040838503121561197a57600080fd5b600083013567ffffffffffffffff81111561199457600080fd5b6119a0858286016118d5565b92505060206119b1858286016118c0565b9150509250929050565b60008060008060008060c087890312156119d457600080fd5b600087013567ffffffffffffffff8111156119ee57600080fd5b6119fa89828a016118d5565b9650506020611a0b89828a01611929565b955050604087013567ffffffffffffffff811115611a2857600080fd5b611a3489828a016118d5565b945050606087013567ffffffffffffffff811115611a5157600080fd5b611a5d89828a016118d5565b935050608087013567ffffffffffffffff811115611a7a57600080fd5b611a8689828a016118d5565b92505060a087013567ffffffffffffffff811115611aa357600080fd5b611aaf89828a016118d5565b9150509295509295509295565b600060208284031215611ace57600080fd5b6000611adc84828501611929565b91505092915050565b611aee8161204d565b82525050565b611afd81612005565b82525050565b611b0c81612017565b82525050565b6000611b1d82611fe9565b611b278185611ff4565b9350611b37818560208601612092565b611b40816120c5565b840191505092915050565b6000611b5682611fde565b611b608185611ff4565b9350611b70818560208601612092565b611b79816120c5565b840191505092915050565b6000611b91604583611ff4565b91507f596f752063616e6e6f742072657175657374206e6577206c6f616e206265666f60008301527f72652072657475726e696e67207468652070726576696f7573206c6f616e206160208301527f6d6f756e740000000000000000000000000000000000000000000000000000006040830152606082019050919050565b6000611c1d601d83611ff4565b91507f4c6f616e2068617320616c7265616479206265656e206772616e7465640000006000830152602082019050919050565b6000611c5d602b83611ff4565b91507f596f75206861766520616c72656164792072656769737465726564206f6e206f60008301527f757220706c6174666f726d0000000000000000000000000000000000000000006020830152604082019050919050565b611cbf81612043565b82525050565b6000602082019050611cda6000830184611af4565b92915050565b6000604082019050611cf56000830185611b03565b8181036020830152611d078184611b12565b90509392505050565b600060c0820190508181036000830152611d2a8189611b12565b9050611d396020830188611cb6565b8181036040830152611d4b8187611b12565b90508181036060830152611d5f8186611b12565b90508181036080830152611d738185611b12565b905081810360a0830152611d878184611b12565b9050979650505050505050565b600060e0820190508181036000830152611dae818a611b12565b9050611dbd6020830189611cb6565b8181036040830152611dcf8188611b12565b90508181036060830152611de38187611b12565b90508181036080830152611df78186611b12565b905081810360a0830152611e0b8185611b12565b9050611e1a60c0830184611ae5565b98975050505050505050565b6000610180820190508181036000830152611e41818f611b4b565b9050611e50602083018e611cb6565b8181036040830152611e62818d611b4b565b90508181036060830152611e76818c611b4b565b90508181036080830152611e8a818b611b4b565b905081810360a0830152611e9e818a611b4b565b9050611ead60c0830189611cb6565b611eba60e0830188611cb6565b611ec8610100830187611cb6565b818103610120830152611edb8186611b4b565b9050611eeb610140830185611af4565b611ef9610160830184611af4565b9d9c50505050505050505050505050565b60006020820190508181036000830152611f2381611b84565b9050919050565b60006020820190508181036000830152611f4381611c10565b9050919050565b60006020820190508181036000830152611f6381611c50565b9050919050565b6000602082019050611f7f6000830184611cb6565b92915050565b6000604051905081810181811067ffffffffffffffff82111715611fa857600080fd5b8060405250919050565b600067ffffffffffffffff821115611fc957600080fd5b601f19601f8301169050602081019050919050565b600081519050919050565b600081519050919050565b600082825260208201905092915050565b600061201082612023565b9050919050565b60008115159050919050565b600073ffffffffffffffffffffffffffffffffffffffff82169050919050565b6000819050919050565b60006120588261205f565b9050919050565b600061206a82612071565b9050919050565b600061207c82612023565b9050919050565b82818337600083830152505050565b60005b838110156120b0578082015181840152602081019050612095565b838111156120bf576000848401525b50505050565b6000601f19601f8301169050919050565b6120df81612005565b81146120ea57600080fd5b50565b6120f681612043565b811461210157600080fd5b5056fea365627a7a7231582017b47210dcafc5a327c113ab1bb49f97fe04e37d33fbf752266fdb55943bad096c6578706572696d656e74616cf564736f6c63430005100040",
  "source": "/*\r\n    Handcrafted by: Shubham Gupta\r\n\r\n    About: This contract registers the borrower and shows the registered information on user's profile page.\r\n*/\r\n\r\npragma solidity >=0.4.17 <0.7.0;\r\npragma experimental ABIEncoderV2;\r\n\r\ncontract Borrower {\r\n\r\n    struct Borrower_Info {\r\n\r\n        string name;\r\n        uint age;\r\n        string residential_address;\r\n        string mobile_no;\r\n        string aadhar_no;\r\n        string college_name;\r\n        \r\n        uint loanStatus;          //0 -> inactive, 1 -> active, 2 -> granted\r\n        uint loanLimit;             //It is initialized to 500.\r\n        uint amountToPay;           //It is initialized to 0.\r\n        string timeOfLoan;\r\n        address borrowersAddress;    //Used to set the id of the Accept button\r\n        address lendersAddress;\r\n    }   \r\n\r\n    event BorrowerRegistered(string _name, uint _age, string _address, string _mobile, string _aadhar, string _clg, address sender);\r\n\r\n\r\n    uint public borrowers_count;\r\n    mapping (uint => address) public mapBorrowers;\r\n    mapping (address => Borrower_Info) public borrowers;\r\n    mapping(address => bool) borrower_accounts; \r\n\r\n    //This function is used to save the information entered by the borrower during registraton.\r\n    function Set_Borrower (string memory _name, uint _age, string memory _address, string memory _mobile, string memory _aadhar, string memory _clg) public {\r\n\r\n        address uaddress = msg.sender;\r\n\r\n        require(borrower_accounts[uaddress] == false, \"You have already registered on our platform\");\r\n\r\n        borrowers[uaddress].name = _name;\r\n        borrowers[uaddress].age = _age;\r\n        borrowers[uaddress].residential_address = _address;\r\n        borrowers[uaddress].mobile_no = _mobile;\r\n        borrowers[uaddress].aadhar_no = _aadhar;\r\n        borrowers[uaddress].college_name = _clg;\r\n\r\n        borrowers[uaddress].loanStatus = 0;\r\n        borrowers[uaddress].loanLimit = 500;\r\n        borrowers[uaddress].amountToPay = 0;\r\n        borrowers[uaddress].borrowersAddress = uaddress;\r\n\r\n        emit BorrowerRegistered (_name, _age, _address, _mobile, _aadhar, _clg, msg.sender);\r\n\r\n        borrower_accounts[uaddress] = true;\r\n        mapBorrowers[borrowers_count] = uaddress;\r\n        borrowers_count ++;\r\n    }\r\n\r\n    //This function returns the stored information through address\r\n    function Get_Borrower () view public returns (string memory, uint, string memory, string memory, string memory, string memory) {\r\n        address uaddress = msg.sender;\r\n        Borrower_Info memory borrower = borrowers[uaddress];\r\n\r\n        return (borrower.name, borrower.age, borrower.residential_address, borrower.mobile_no, borrower.aadhar_no, borrower.college_name);\r\n    }\r\n\r\n    function Login_Borrower() view public returns (bool, string memory) {\r\n\r\n        address uaddress = msg.sender;\r\n        return (borrower_accounts[uaddress], borrowers[uaddress].name);\r\n    }\r\n\r\n    function Get_Loan_Limit () view public returns (uint) {\r\n        address uaddress = msg.sender;\r\n\r\n        return borrowers[uaddress].loanLimit;\r\n    }\r\n\r\n    function Loan_Request ( uint amount) public {\r\n        address uaddress = msg.sender;\r\n\r\n        require(borrowers[uaddress].loanStatus == 0, \"You cannot request new loan before returning the previous loan amount\");\r\n\r\n        borrowers[uaddress].loanStatus = 1;\r\n        borrowers[uaddress].amountToPay = amount;\r\n    }\r\n\r\n    function Loan_Granted (string memory _date, address receiver) public {\r\n        address uaddress = address(receiver);\r\n\r\n        require (borrowers[uaddress].loanStatus <= 1, \"Loan has already been granted\");\r\n\r\n        borrowers[uaddress].loanStatus = 2;\r\n        borrowers[uaddress].timeOfLoan = _date;\r\n        borrowers[uaddress].lendersAddress = msg.sender;\r\n    }\r\n\r\n    function Loan_Repay() public {\r\n        address uaddress = msg.sender;\r\n        uint loanLimit = borrowers[uaddress].loanLimit;\r\n\r\n        //require(borrowers[uaddress].loanStatus == 2, \"Loan not borrowed\");\r\n\r\n        borrowers[uaddress].loanStatus = 0;\r\n        borrowers[uaddress].timeOfLoan = \"\";\r\n        borrowers[uaddress].lendersAddress = address(0);\r\n        borrowers[uaddress].amountToPay = 0;\r\n        borrowers[uaddress].loanLimit = loanLimit*2;\r\n\r\n        if(borrowers[uaddress].loanLimit > 5000) {\r\n            borrowers[uaddress].loanLimit = 5000;\r\n        }\r\n    }\r\n}\r\n",
  "sourcePath": "C:/Users/hp/Desktop/lendingMarketplace/contracts/Borrower.sol",
  "compiler": {
    "name": "solc",
    "version": "0.5.16+commit.9c3226ce.Emscripten.clang"
  },
  "schemaVersion": "3.0.22",
  "updatedAt": "2020-04-29T10:04:12.512Z",
  "networkType": "ethereum",
  "devdoc": {
    "methods": {}
  },
  "userdoc": {
    "methods": {}
  }
}