{
  "contractName": "Lender",
  "abi": [
    {
      "anonymous": false,
      "inputs": [
        {
          "indexed": false,
          "internalType": "string",
          "name": "_name",
          "type": "string"
        },
        {
          "indexed": false,
          "internalType": "uint256",
          "name": "_age",
          "type": "uint256"
        },
        {
          "indexed": false,
          "internalType": "string",
          "name": "_address",
          "type": "string"
        },
        {
          "indexed": false,
          "internalType": "string",
          "name": "_mobile",
          "type": "string"
        },
        {
          "indexed": false,
          "internalType": "string",
          "name": "_aadhar",
          "type": "string"
        },
        {
          "indexed": false,
          "internalType": "address",
          "name": "sender",
          "type": "address"
        }
      ],
      "name": "LenderRegistered",
      "type": "event"
    },
    {
      "constant": true,
      "inputs": [
        {
          "internalType": "address",
          "name": "",
          "type": "address"
        }
      ],
      "name": "lenders",
      "outputs": [
        {
          "internalType": "string",
          "name": "name",
          "type": "string"
        },
        {
          "internalType": "uint256",
          "name": "age",
          "type": "uint256"
        },
        {
          "internalType": "string",
          "name": "residential_address",
          "type": "string"
        },
        {
          "internalType": "string",
          "name": "mobile_no",
          "type": "string"
        },
        {
          "internalType": "string",
          "name": "aadhar_no",
          "type": "string"
        },
        {
          "internalType": "uint256",
          "name": "number_of_loans",
          "type": "uint256"
        }
      ],
      "payable": false,
      "stateMutability": "view",
      "type": "function"
    },
    {
      "constant": false,
      "inputs": [
        {
          "internalType": "string",
          "name": "_name",
          "type": "string"
        },
        {
          "internalType": "uint256",
          "name": "_age",
          "type": "uint256"
        },
        {
          "internalType": "string",
          "name": "_address",
          "type": "string"
        },
        {
          "internalType": "string",
          "name": "_mobile",
          "type": "string"
        },
        {
          "internalType": "string",
          "name": "_aadhar",
          "type": "string"
        }
      ],
      "name": "Set_Lender",
      "outputs": [],
      "payable": false,
      "stateMutability": "nonpayable",
      "type": "function"
    },
    {
      "constant": true,
      "inputs": [],
      "name": "Get_Borrower_Info",
      "outputs": [
        {
          "internalType": "address[50]",
          "name": "receiver",
          "type": "address[50]"
        },
        {
          "internalType": "uint256[50]",
          "name": "amount",
          "type": "uint256[50]"
        },
        {
          "internalType": "string[50]",
          "name": "date_of_lending",
          "type": "string[50]"
        }
      ],
      "payable": false,
      "stateMutability": "view",
      "type": "function"
    },
    {
      "constant": true,
      "inputs": [],
      "name": "Login_Lender",
      "outputs": [
        {
          "internalType": "bool",
          "name": "",
          "type": "bool"
        },
        {
          "internalType": "string",
          "name": "",
          "type": "string"
        }
      ],
      "payable": false,
      "stateMutability": "view",
      "type": "function"
    },
    {
      "constant": false,
      "inputs": [
        {
          "internalType": "address",
          "name": "_receiver",
          "type": "address"
        },
        {
          "internalType": "uint256",
          "name": "_amount",
          "type": "uint256"
        },
        {
          "internalType": "string",
          "name": "_date",
          "type": "string"
        }
      ],
      "name": "Grant_Loan",
      "outputs": [],
      "payable": false,
      "stateMutability": "nonpayable",
      "type": "function"
    }
  ],
  "bytecode": "0x608060405234801561001057600080fd5b5061176d806100206000396000f3fe608060405234801561001057600080fd5b50600436106100575760003560e01c806302a2ad811461005c57806328c68f5c1461007857806328fd10d71461009457806369170d02146100c9578063bbeb40fc146100e8575b600080fd5b61007660048036036100719190810190610f87565b610108565b005b610092600480360361008d9190810190610fee565b61040a565b005b6100ae60048036036100a99190810190610f5e565b610727565b6040516100c096959493929190611476565b60405180910390f35b6100d16109c3565b6040516100df9291906113c9565b60405180910390f35b6100f0610aff565b6040516100ff93929190611388565b60405180910390f35b600033905060008060008373ffffffffffffffffffffffffffffffffffffffff1673ffffffffffffffffffffffffffffffffffffffff16815260200190815260200160002060050154905061015b610d2c565b600260008473ffffffffffffffffffffffffffffffffffffffff1673ffffffffffffffffffffffffffffffffffffffff16815260200190815260200160002060405180606001604052908160008201603280602002604051908101604052809291908260328015610217576020028201915b8160009054906101000a900473ffffffffffffffffffffffffffffffffffffffff1673ffffffffffffffffffffffffffffffffffffffff16815260200190600101908083116101cd575b505050505081526020016032820160328060200260405190810160405280929190826032801561025c576020028201915b815481526020019060010190808311610248575b5050505050815260200160648201603280602002604051908101604052809291906000905b82821015610334578382018054600181600116156101000203166002900480601f0160208091040260200160405190810160405280929190818152602001828054600181600116156101000203166002900480156103205780601f106102f557610100808354040283529160200191610320565b820191906000526020600020905b81548152906001019060200180831161030357829003601f168201915b505050505081526020019060010190610281565b50505050815250509050858160000151836032811061034f57fe5b602002019073ffffffffffffffffffffffffffffffffffffffff16908173ffffffffffffffffffffffffffffffffffffffff1681525050848160200151836032811061039757fe5b60200201818152505083816040015183603281106103b157fe5b6020020181905250600182016000808573ffffffffffffffffffffffffffffffffffffffff1673ffffffffffffffffffffffffffffffffffffffff16815260200190815260200160002060050181905550505050505050565b600033905060001515600160008373ffffffffffffffffffffffffffffffffffffffff1673ffffffffffffffffffffffffffffffffffffffff16815260200190815260200160002060009054906101000a900460ff161515146104a2576040517f08c379a0000000000000000000000000000000000000000000000000000000008152600401610499906114f3565b60405180910390fd5b856000808373ffffffffffffffffffffffffffffffffffffffff1673ffffffffffffffffffffffffffffffffffffffff16815260200190815260200160002060000190805190602001906104f7929190610d5f565b50846000808373ffffffffffffffffffffffffffffffffffffffff1673ffffffffffffffffffffffffffffffffffffffff16815260200190815260200160002060010181905550836000808373ffffffffffffffffffffffffffffffffffffffff1673ffffffffffffffffffffffffffffffffffffffff1681526020019081526020016000206002019080519060200190610593929190610d5f565b50826000808373ffffffffffffffffffffffffffffffffffffffff1673ffffffffffffffffffffffffffffffffffffffff16815260200190815260200160002060030190805190602001906105e9929190610d5f565b50816000808373ffffffffffffffffffffffffffffffffffffffff1673ffffffffffffffffffffffffffffffffffffffff168152602001908152602001600020600401908051906020019061063f929190610d5f565b5060008060008373ffffffffffffffffffffffffffffffffffffffff1673ffffffffffffffffffffffffffffffffffffffff168152602001908152602001600020600501819055507f0a5ea1e01bc88e61123d7daf9b08abec45b2becbbaaba4e8f7c36ac71ac5eb748686868686336040516106c0969594939291906113f9565b60405180910390a160018060008373ffffffffffffffffffffffffffffffffffffffff1673ffffffffffffffffffffffffffffffffffffffff16815260200190815260200160002060006101000a81548160ff021916908315150217905550505050505050565b6000602052806000526040600020600091509050806000018054600181600116156101000203166002900480601f0160208091040260200160405190810160405280929190818152602001828054600181600116156101000203166002900480156107d35780601f106107a8576101008083540402835291602001916107d3565b820191906000526020600020905b8154815290600101906020018083116107b657829003601f168201915b505050505090806001015490806002018054600181600116156101000203166002900480601f0160208091040260200160405190810160405280929190818152602001828054600181600116156101000203166002900480156108775780601f1061084c57610100808354040283529160200191610877565b820191906000526020600020905b81548152906001019060200180831161085a57829003601f168201915b505050505090806003018054600181600116156101000203166002900480601f0160208091040260200160405190810160405280929190818152602001828054600181600116156101000203166002900480156109155780601f106108ea57610100808354040283529160200191610915565b820191906000526020600020905b8154815290600101906020018083116108f857829003601f168201915b505050505090806004018054600181600116156101000203166002900480601f0160208091040260200160405190810160405280929190818152602001828054600181600116156101000203166002900480156109b35780601f10610988576101008083540402835291602001916109b3565b820191906000526020600020905b81548152906001019060200180831161099657829003601f168201915b5050505050908060050154905086565b600060606000339050600160008273ffffffffffffffffffffffffffffffffffffffff1673ffffffffffffffffffffffffffffffffffffffff16815260200190815260200160002060009054906101000a900460ff166000808373ffffffffffffffffffffffffffffffffffffffff1673ffffffffffffffffffffffffffffffffffffffff168152602001908152602001600020600001808054600181600116156101000203166002900480601f016020809104026020016040519081016040528092919081815260200182805460018160011615610100020316600290048015610aef5780601f10610ac457610100808354040283529160200191610aef565b820191906000526020600020905b815481529060010190602001808311610ad257829003601f168201915b5050505050905092509250509091565b610b07610ddf565b610b0f610e02565b610b17610e25565b6000339050610b24610d2c565b600260008373ffffffffffffffffffffffffffffffffffffffff1673ffffffffffffffffffffffffffffffffffffffff16815260200190815260200160002060405180606001604052908160008201603280602002604051908101604052809291908260328015610be0576020028201915b8160009054906101000a900473ffffffffffffffffffffffffffffffffffffffff1673ffffffffffffffffffffffffffffffffffffffff1681526020019060010190808311610b96575b5050505050815260200160328201603280602002604051908101604052809291908260328015610c25576020028201915b815481526020019060010190808311610c11575b5050505050815260200160648201603280602002604051908101604052809291906000905b82821015610cfd578382018054600181600116156101000203166002900480601f016020809104026020016040519081016040528092919081815260200182805460018160011615610100020316600290048015610ce95780601f10610cbe57610100808354040283529160200191610ce9565b820191906000526020600020905b815481529060010190602001808311610ccc57829003601f168201915b505050505081526020019060010190610c4a565b505050508152505090508060000151816020015182604001518292508191508090509450945094505050909192565b6040518060600160405280610d3f610e4d565b8152602001610d4c610e70565b8152602001610d59610e93565b81525090565b828054600181600116156101000203166002900490600052602060002090601f016020900481019282601f10610da057805160ff1916838001178555610dce565b82800160010185558215610dce579182015b82811115610dcd578251825591602001919060010190610db2565b5b509050610ddb9190610ebb565b5090565b604051806106400160405280603290602082028038833980820191505090505090565b604051806106400160405280603290602082028038833980820191505090505090565b6040518061064001604052806032905b6060815260200190600190039081610e355790505090565b604051806106400160405280603290602082028038833980820191505090505090565b604051806106400160405280603290602082028038833980820191505090505090565b6040518061064001604052806032905b6060815260200190600190039081610ea35790505090565b610edd91905b80821115610ed9576000816000905550600101610ec1565b5090565b90565b600081359050610eef816116fc565b92915050565b600082601f830112610f0657600080fd5b8135610f19610f1482611540565b611513565b91508082526020830160208301858383011115610f3557600080fd5b610f408382846116a9565b50505092915050565b600081359050610f5881611713565b92915050565b600060208284031215610f7057600080fd5b6000610f7e84828501610ee0565b91505092915050565b600080600060608486031215610f9c57600080fd5b6000610faa86828701610ee0565b9350506020610fbb86828701610f49565b925050604084013567ffffffffffffffff811115610fd857600080fd5b610fe486828701610ef5565b9150509250925092565b600080600080600060a0868803121561100657600080fd5b600086013567ffffffffffffffff81111561102057600080fd5b61102c88828901610ef5565b955050602061103d88828901610f49565b945050604086013567ffffffffffffffff81111561105a57600080fd5b61106688828901610ef5565b935050606086013567ffffffffffffffff81111561108357600080fd5b61108f88828901610ef5565b925050608086013567ffffffffffffffff8111156110ac57600080fd5b6110b888828901610ef5565b9150509295509295909350565b60006110d18383611118565b60208301905092915050565b60006110e98383611292565b905092915050565b60006110fd838361136a565b60208301905092915050565b61111281611673565b82525050565b6111218161162b565b82525050565b6111308161158a565b61113a81846115e8565b92506111458261156c565b8060005b8381101561117657815161115d87826110c5565b9650611168836115c1565b925050600181019050611149565b505050505050565b600061118982611595565b61119381856115f3565b9350836020820285016111a585611576565b8060005b858110156111e157848403895281516111c285826110dd565b94506111cd836115ce565b925060208a019950506001810190506111a9565b50829750879550505050505092915050565b6111fc816115a0565b61120681846115fe565b925061121182611580565b8060005b8381101561124257815161122987826110f1565b9650611234836115db565b925050600181019050611215565b505050505050565b6112538161163d565b82525050565b6000611264826115b6565b61126e818561161a565b935061127e8185602086016116b8565b611287816116eb565b840191505092915050565b600061129d826115ab565b6112a78185611609565b93506112b78185602086016116b8565b6112c0816116eb565b840191505092915050565b60006112d6826115ab565b6112e0818561161a565b93506112f08185602086016116b8565b6112f9816116eb565b840191505092915050565b6000611311602b8361161a565b91507f596f75206861766520616c72656164792072656769737465726564206f6e206f60008301527f757220706c6174666f726d0000000000000000000000000000000000000000006020830152604082019050919050565b61137381611669565b82525050565b61138281611669565b82525050565b6000610ca08201905061139e6000830186611127565b6113ac6106408301856111f3565b818103610c808301526113bf818461117e565b9050949350505050565b60006040820190506113de600083018561124a565b81810360208301526113f08184611259565b90509392505050565b600060c08201905081810360008301526114138189611259565b90506114226020830188611379565b81810360408301526114348187611259565b905081810360608301526114488186611259565b9050818103608083015261145c8185611259565b905061146b60a0830184611109565b979650505050505050565b600060c082019050818103600083015261149081896112cb565b905061149f6020830188611379565b81810360408301526114b181876112cb565b905081810360608301526114c581866112cb565b905081810360808301526114d981856112cb565b90506114e860a0830184611379565b979650505050505050565b6000602082019050818103600083015261150c81611304565b9050919050565b6000604051905081810181811067ffffffffffffffff8211171561153657600080fd5b8060405250919050565b600067ffffffffffffffff82111561155757600080fd5b601f19601f8301169050602081019050919050565b6000819050919050565b6000819050919050565b6000819050919050565b600060329050919050565b600060329050919050565b600060329050919050565b600081519050919050565b600081519050919050565b6000602082019050919050565b6000602082019050919050565b6000602082019050919050565b600081905092915050565b600081905092915050565b600081905092915050565b600082825260208201905092915050565b600082825260208201905092915050565b600061163682611649565b9050919050565b60008115159050919050565b600073ffffffffffffffffffffffffffffffffffffffff82169050919050565b6000819050919050565b600061167e82611685565b9050919050565b600061169082611697565b9050919050565b60006116a282611649565b9050919050565b82818337600083830152505050565b60005b838110156116d65780820151818401526020810190506116bb565b838111156116e5576000848401525b50505050565b6000601f19601f8301169050919050565b6117058161162b565b811461171057600080fd5b50565b61171c81611669565b811461172757600080fd5b5056fea365627a7a7231582043f6cc1adbad13f1586adb55bb51514b382c44b9726c4b8cddef99b279c915c46c6578706572696d656e74616cf564736f6c63430005100040",
  "source": "/*\r\n    Handcrafted by: Shubham Gupta\r\n\r\n    About: This contract registers the lender and shows the registered information on user's profile page.\r\n*/\r\n\r\npragma solidity >=0.4.17 <0.7.0;\r\npragma experimental ABIEncoderV2;\r\n\r\ncontract Lender {\r\n\r\n    struct Borrower_Info {\r\n        address[50] receiver;\r\n        uint[50] amount;\r\n        string[50] date_of_lending;\r\n    }\r\n\r\n    struct Lender_Info {\r\n\r\n        string name;\r\n        uint age;\r\n        string residential_address;\r\n        string mobile_no;\r\n        string aadhar_no;\r\n\r\n        uint number_of_loans;\r\n    }   \r\n\r\n    event LenderRegistered(string _name, uint _age, string _address, string _mobile, string _aadhar, address sender);\r\n\r\n\r\n    mapping (address => Lender_Info) public lenders;\r\n    mapping (address => bool) lender_accounts; \r\n    mapping (address => Borrower_Info) borrowers;\r\n\r\n    //This function is used to save the information entered by the borrower during registraton.\r\n    function Set_Lender (string memory _name, uint _age, string memory _address, string memory _mobile, string memory _aadhar) public {\r\n\r\n        address uaddress = msg.sender;\r\n        \r\n        require(lender_accounts[uaddress] == false, \"You have already registered on our platform\");\r\n\r\n        lenders[uaddress].name = _name;\r\n        lenders[uaddress].age = _age;\r\n        lenders[uaddress].residential_address = _address;\r\n        lenders[uaddress].mobile_no = _mobile;\r\n        lenders[uaddress].aadhar_no = _aadhar;\r\n\r\n        lenders[uaddress].number_of_loans = 0;\r\n\r\n        emit LenderRegistered (_name, _age, _address, _mobile, _aadhar, msg.sender);\r\n\r\n        lender_accounts[uaddress] = true;\r\n    }\r\n\r\n    //This function returns the stored information through address\r\n    function Get_Borrower_Info () view public returns (address[50] memory receiver, uint[50] memory amount, string[50] memory date_of_lending) {\r\n        address uaddress = msg.sender;\r\n        Borrower_Info memory borrower = borrowers[uaddress];\r\n\r\n        return (borrower.receiver, borrower.amount, borrower.date_of_lending);\r\n    }\r\n\r\n    \r\n    function Login_Lender() view public returns (bool, string memory) {\r\n\r\n        address uaddress = msg.sender;\r\n        return (lender_accounts[uaddress], lenders[uaddress].name);\r\n    }\r\n\r\n    function Grant_Loan(address _receiver, uint _amount, string memory _date) public {\r\n        address uaddress = msg.sender;\r\n        uint number_of_loans = lenders[uaddress].number_of_loans;\r\n        Borrower_Info memory borrower = borrowers[uaddress];\r\n\r\n        borrower.receiver[number_of_loans] = address(_receiver);\r\n        borrower.amount[number_of_loans] = _amount;\r\n        borrower.date_of_lending[number_of_loans] = _date;\r\n\r\n        lenders[uaddress].number_of_loans = number_of_loans+1;    \r\n    }\r\n}\r\n",
  "sourcePath": "C:/Users/hp/Desktop/lendingMarketplace/contracts/Lender.sol",
  "compiler": {
    "name": "solc",
    "version": "0.5.16+commit.9c3226ce.Emscripten.clang"
  },
  "schemaVersion": "3.0.22",
  "updatedAt": "2020-04-21T08:50:17.585Z",
  "networkType": "ethereum",
  "devdoc": {
    "methods": {}
  },
  "userdoc": {
    "methods": {}
  }
}