{
  "contractName": "Lender",
  "abi": [
    {
      "anonymous": false,
      "inputs": [
        {
          "indexed": false,
          "internalType": "string",
          "name": "_name",
          "type": "string"
        },
        {
          "indexed": false,
          "internalType": "uint256",
          "name": "_age",
          "type": "uint256"
        },
        {
          "indexed": false,
          "internalType": "string",
          "name": "_address",
          "type": "string"
        },
        {
          "indexed": false,
          "internalType": "string",
          "name": "_mobile",
          "type": "string"
        },
        {
          "indexed": false,
          "internalType": "string",
          "name": "_aadhar",
          "type": "string"
        },
        {
          "indexed": false,
          "internalType": "address",
          "name": "sender",
          "type": "address"
        }
      ],
      "name": "LenderRegistered",
      "type": "event"
    },
    {
      "constant": true,
      "inputs": [
        {
          "internalType": "address",
          "name": "",
          "type": "address"
        }
      ],
      "name": "lenders",
      "outputs": [
        {
          "internalType": "string",
          "name": "name",
          "type": "string"
        },
        {
          "internalType": "uint256",
          "name": "age",
          "type": "uint256"
        },
        {
          "internalType": "string",
          "name": "residentialAddress",
          "type": "string"
        },
        {
          "internalType": "string",
          "name": "mobileNo",
          "type": "string"
        },
        {
          "internalType": "string",
          "name": "aadharNo",
          "type": "string"
        },
        {
          "internalType": "uint256",
          "name": "numberOfLoans",
          "type": "uint256"
        },
        {
          "internalType": "uint256",
          "name": "activeLoans",
          "type": "uint256"
        }
      ],
      "payable": false,
      "stateMutability": "view",
      "type": "function"
    },
    {
      "constant": false,
      "inputs": [
        {
          "internalType": "string",
          "name": "_name",
          "type": "string"
        },
        {
          "internalType": "uint256",
          "name": "_age",
          "type": "uint256"
        },
        {
          "internalType": "string",
          "name": "_address",
          "type": "string"
        },
        {
          "internalType": "string",
          "name": "_mobile",
          "type": "string"
        },
        {
          "internalType": "string",
          "name": "_aadhar",
          "type": "string"
        }
      ],
      "name": "Set_Lender",
      "outputs": [],
      "payable": false,
      "stateMutability": "nonpayable",
      "type": "function"
    },
    {
      "constant": true,
      "inputs": [],
      "name": "Get_Borrower_Address",
      "outputs": [
        {
          "internalType": "address[]",
          "name": "receiver",
          "type": "address[]"
        },
        {
          "internalType": "uint256",
          "name": "activeLoans",
          "type": "uint256"
        }
      ],
      "payable": false,
      "stateMutability": "view",
      "type": "function"
    },
    {
      "constant": true,
      "inputs": [],
      "name": "Login_Lender",
      "outputs": [
        {
          "internalType": "bool",
          "name": "",
          "type": "bool"
        },
        {
          "internalType": "string",
          "name": "",
          "type": "string"
        }
      ],
      "payable": false,
      "stateMutability": "view",
      "type": "function"
    },
    {
      "constant": false,
      "inputs": [
        {
          "internalType": "address",
          "name": "_receiver",
          "type": "address"
        }
      ],
      "name": "Grant_Loan",
      "outputs": [],
      "payable": false,
      "stateMutability": "nonpayable",
      "type": "function"
    },
    {
      "constant": false,
      "inputs": [
        {
          "internalType": "address",
          "name": "_receiver",
          "type": "address"
        }
      ],
      "name": "Loan_Repaid",
      "outputs": [
        {
          "internalType": "uint256",
          "name": "len",
          "type": "uint256"
        }
      ],
      "payable": false,
      "stateMutability": "nonpayable",
      "type": "function"
    },
    {
      "constant": true,
      "inputs": [],
      "name": "Status_View",
      "outputs": [
        {
          "internalType": "uint256",
          "name": "len",
          "type": "uint256"
        },
        {
          "internalType": "uint256",
          "name": "activeLoans",
          "type": "uint256"
        }
      ],
      "payable": false,
      "stateMutability": "view",
      "type": "function"
    }
  ],
  "bytecode": "0x608060405234801561001057600080fd5b506118b1806100206000396000f3fe608060405234801561001057600080fd5b506004361061007d5760003560e01c80636f2624d51161005b5780636f2624d5146100f35780638e864a4114610112578063916295f2146101425780639b1a89b11461015e5761007d565b806328c68f5c1461008257806328fd10d71461009e57806369170d02146100d4575b600080fd5b61009c60048036036100979190810190611289565b61017d565b005b6100b860048036036100b39190810190611260565b6104e1565b6040516100cb97969594939291906115c7565b60405180910390f35b6100dc610783565b6040516100ea92919061151a565b60405180910390f35b6100fb6108bf565b6040516101099291906114ea565b60405180910390f35b61012c60048036036101279190810190611260565b6109db565b6040516101399190611672565b60405180910390f35b61015c60048036036101579190810190611260565b610ea5565b005b610166611079565b60405161017492919061168d565b60405180910390f35b600033905060001515600160008373ffffffffffffffffffffffffffffffffffffffff1673ffffffffffffffffffffffffffffffffffffffff16815260200190815260200160002060009054906101000a900460ff16151514610215576040517f08c379a000000000000000000000000000000000000000000000000000000000815260040161020c90611652565b60405180910390fd5b856000808373ffffffffffffffffffffffffffffffffffffffff1673ffffffffffffffffffffffffffffffffffffffff168152602001908152602001600020600001908051906020019061026a929190611111565b50846000808373ffffffffffffffffffffffffffffffffffffffff1673ffffffffffffffffffffffffffffffffffffffff16815260200190815260200160002060010181905550836000808373ffffffffffffffffffffffffffffffffffffffff1673ffffffffffffffffffffffffffffffffffffffff1681526020019081526020016000206002019080519060200190610306929190611111565b50826000808373ffffffffffffffffffffffffffffffffffffffff1673ffffffffffffffffffffffffffffffffffffffff168152602001908152602001600020600301908051906020019061035c929190611111565b50816000808373ffffffffffffffffffffffffffffffffffffffff1673ffffffffffffffffffffffffffffffffffffffff16815260200190815260200160002060040190805190602001906103b2929190611111565b5060008060008373ffffffffffffffffffffffffffffffffffffffff1673ffffffffffffffffffffffffffffffffffffffff1681526020019081526020016000206005018190555060008060008373ffffffffffffffffffffffffffffffffffffffff1673ffffffffffffffffffffffffffffffffffffffff168152602001908152602001600020600601819055507f0a5ea1e01bc88e61123d7daf9b08abec45b2becbbaaba4e8f7c36ac71ac5eb7486868686863360405161047a9695949392919061154a565b60405180910390a160018060008373ffffffffffffffffffffffffffffffffffffffff1673ffffffffffffffffffffffffffffffffffffffff16815260200190815260200160002060006101000a81548160ff021916908315150217905550505050505050565b6000602052806000526040600020600091509050806000018054600181600116156101000203166002900480601f01602080910402602001604051908101604052809291908181526020018280546001816001161561010002031660029004801561058d5780601f106105625761010080835404028352916020019161058d565b820191906000526020600020905b81548152906001019060200180831161057057829003601f168201915b505050505090806001015490806002018054600181600116156101000203166002900480601f0160208091040260200160405190810160405280929190818152602001828054600181600116156101000203166002900480156106315780601f1061060657610100808354040283529160200191610631565b820191906000526020600020905b81548152906001019060200180831161061457829003601f168201915b505050505090806003018054600181600116156101000203166002900480601f0160208091040260200160405190810160405280929190818152602001828054600181600116156101000203166002900480156106cf5780601f106106a4576101008083540402835291602001916106cf565b820191906000526020600020905b8154815290600101906020018083116106b257829003601f168201915b505050505090806004018054600181600116156101000203166002900480601f01602080910402602001604051908101604052809291908181526020018280546001816001161561010002031660029004801561076d5780601f106107425761010080835404028352916020019161076d565b820191906000526020600020905b81548152906001019060200180831161075057829003601f168201915b5050505050908060050154908060060154905087565b600060606000339050600160008273ffffffffffffffffffffffffffffffffffffffff1673ffffffffffffffffffffffffffffffffffffffff16815260200190815260200160002060009054906101000a900460ff166000808373ffffffffffffffffffffffffffffffffffffffff1673ffffffffffffffffffffffffffffffffffffffff168152602001908152602001600020600001808054600181600116156101000203166002900480601f0160208091040260200160405190810160405280929190818152602001828054600181600116156101000203166002900480156108af5780601f10610884576101008083540402835291602001916108af565b820191906000526020600020905b81548152906001019060200180831161089257829003601f168201915b5050505050905092509250509091565b60606000803390506000808273ffffffffffffffffffffffffffffffffffffffff1673ffffffffffffffffffffffffffffffffffffffff1681526020019081526020016000206007016000808373ffffffffffffffffffffffffffffffffffffffff1673ffffffffffffffffffffffffffffffffffffffff16815260200190815260200160002060060154818054806020026020016040519081016040528092919081815260200182805480156109cb57602002820191906000526020600020905b8160009054906101000a900473ffffffffffffffffffffffffffffffffffffffff1673ffffffffffffffffffffffffffffffffffffffff1681526020019060010190808311610981575b5050505050915092509250509091565b600080339050600083905060008060008473ffffffffffffffffffffffffffffffffffffffff1673ffffffffffffffffffffffffffffffffffffffff1681526020019081526020016000206006015490506000808473ffffffffffffffffffffffffffffffffffffffff1673ffffffffffffffffffffffffffffffffffffffff1681526020019081526020016000206007018290806001815401808255809150509060018203906000526020600020016000909192909190916101000a81548173ffffffffffffffffffffffffffffffffffffffff021916908373ffffffffffffffffffffffffffffffffffffffff1602179055505060008060008573ffffffffffffffffffffffffffffffffffffffff1673ffffffffffffffffffffffffffffffffffffffff168152602001908152602001600020600701805490509050739060a1679c7d4106f3cac77a118c1ef40f9af4f673ffffffffffffffffffffffffffffffffffffffff168473ffffffffffffffffffffffffffffffffffffffff1614610b6657600080fd5b730c5743d0c31af0a7374048ec5ec7e16996136c8b73ffffffffffffffffffffffffffffffffffffffff168373ffffffffffffffffffffffffffffffffffffffff1614610bb257600080fd5b60018114610bbf57600080fd5b60008090505b81811015610e54578373ffffffffffffffffffffffffffffffffffffffff166000808773ffffffffffffffffffffffffffffffffffffffff1673ffffffffffffffffffffffffffffffffffffffff1681526020019081526020016000206007018281548110610c3057fe5b9060005260206000200160009054906101000a900473ffffffffffffffffffffffffffffffffffffffff1673ffffffffffffffffffffffffffffffffffffffff161415610e475760008190505b60018303811015610da3576000808773ffffffffffffffffffffffffffffffffffffffff1673ffffffffffffffffffffffffffffffffffffffff1681526020019081526020016000206007016001820181548110610cd757fe5b9060005260206000200160009054906101000a900473ffffffffffffffffffffffffffffffffffffffff166000808873ffffffffffffffffffffffffffffffffffffffff1673ffffffffffffffffffffffffffffffffffffffff1681526020019081526020016000206007018281548110610d4e57fe5b9060005260206000200160006101000a81548173ffffffffffffffffffffffffffffffffffffffff021916908373ffffffffffffffffffffffffffffffffffffffff1602179055508080600101915050610c7d565b506000808673ffffffffffffffffffffffffffffffffffffffff1673ffffffffffffffffffffffffffffffffffffffff168152602001908152602001600020600701805480919060019003610df89190611191565b50600183036000808773ffffffffffffffffffffffffffffffffffffffff1673ffffffffffffffffffffffffffffffffffffffff16815260200190815260200160002060060181905550610e54565b8080600101915050610bc5565b506000808573ffffffffffffffffffffffffffffffffffffffff1673ffffffffffffffffffffffffffffffffffffffff16815260200190815260200160002060070180549050945050505050919050565b6000339050600082905060008060008473ffffffffffffffffffffffffffffffffffffffff1673ffffffffffffffffffffffffffffffffffffffff16815260200190815260200160002060050154905060008060008573ffffffffffffffffffffffffffffffffffffffff1673ffffffffffffffffffffffffffffffffffffffff1681526020019081526020016000206006015490506000808573ffffffffffffffffffffffffffffffffffffffff1673ffffffffffffffffffffffffffffffffffffffff1681526020019081526020016000206007018390806001815401808255809150509060018203906000526020600020016000909192909190916101000a81548173ffffffffffffffffffffffffffffffffffffffff021916908373ffffffffffffffffffffffffffffffffffffffff16021790555050600182016000808673ffffffffffffffffffffffffffffffffffffffff1673ffffffffffffffffffffffffffffffffffffffff16815260200190815260200160002060050181905550600181016000808673ffffffffffffffffffffffffffffffffffffffff1673ffffffffffffffffffffffffffffffffffffffff168152602001908152602001600020600601819055505050505050565b60008060003390506000808273ffffffffffffffffffffffffffffffffffffffff1673ffffffffffffffffffffffffffffffffffffffff168152602001908152602001600020600701805490506000808373ffffffffffffffffffffffffffffffffffffffff1673ffffffffffffffffffffffffffffffffffffffff1681526020019081526020016000206006015492509250509091565b828054600181600116156101000203166002900490600052602060002090601f016020900481019282601f1061115257805160ff1916838001178555611180565b82800160010185558215611180579182015b8281111561117f578251825591602001919060010190611164565b5b50905061118d91906111bd565b5090565b8154818355818111156111b8578183600052602060002091820191016111b791906111bd565b5b505050565b6111df91905b808211156111db5760008160009055506001016111c3565b5090565b90565b6000813590506111f181611840565b92915050565b600082601f83011261120857600080fd5b813561121b611216826116e3565b6116b6565b9150808252602083016020830185838301111561123757600080fd5b6112428382846117ed565b50505092915050565b60008135905061125a81611857565b92915050565b60006020828403121561127257600080fd5b6000611280848285016111e2565b91505092915050565b600080600080600060a086880312156112a157600080fd5b600086013567ffffffffffffffff8111156112bb57600080fd5b6112c7888289016111f7565b95505060206112d88882890161124b565b945050604086013567ffffffffffffffff8111156112f557600080fd5b611301888289016111f7565b935050606086013567ffffffffffffffff81111561131e57600080fd5b61132a888289016111f7565b925050608086013567ffffffffffffffff81111561134757600080fd5b611353888289016111f7565b9150509295509295909350565b600061136c8383611387565b60208301905092915050565b611381816117b7565b82525050565b6113908161176f565b82525050565b60006113a18261171f565b6113ab818561174d565b93506113b68361170f565b8060005b838110156113e75781516113ce8882611360565b97506113d983611740565b9250506001810190506113ba565b5085935050505092915050565b6113fd81611781565b82525050565b600061140e82611735565b611418818561175e565b93506114288185602086016117fc565b6114318161182f565b840191505092915050565b60006114478261172a565b611451818561175e565b93506114618185602086016117fc565b61146a8161182f565b840191505092915050565b6000611482602b8361175e565b91507f596f75206861766520616c72656164792072656769737465726564206f6e206f60008301527f757220706c6174666f726d0000000000000000000000000000000000000000006020830152604082019050919050565b6114e4816117ad565b82525050565b600060408201905081810360008301526115048185611396565b905061151360208301846114db565b9392505050565b600060408201905061152f60008301856113f4565b81810360208301526115418184611403565b90509392505050565b600060c08201905081810360008301526115648189611403565b905061157360208301886114db565b81810360408301526115858187611403565b905081810360608301526115998186611403565b905081810360808301526115ad8185611403565b90506115bc60a0830184611378565b979650505050505050565b600060e08201905081810360008301526115e1818a61143c565b90506115f060208301896114db565b8181036040830152611602818861143c565b90508181036060830152611616818761143c565b9050818103608083015261162a818661143c565b905061163960a08301856114db565b61164660c08301846114db565b98975050505050505050565b6000602082019050818103600083015261166b81611475565b9050919050565b600060208201905061168760008301846114db565b92915050565b60006040820190506116a260008301856114db565b6116af60208301846114db565b9392505050565b6000604051905081810181811067ffffffffffffffff821117156116d957600080fd5b8060405250919050565b600067ffffffffffffffff8211156116fa57600080fd5b601f19601f8301169050602081019050919050565b6000819050602082019050919050565b600081519050919050565b600081519050919050565b600081519050919050565b6000602082019050919050565b600082825260208201905092915050565b600082825260208201905092915050565b600061177a8261178d565b9050919050565b60008115159050919050565b600073ffffffffffffffffffffffffffffffffffffffff82169050919050565b6000819050919050565b60006117c2826117c9565b9050919050565b60006117d4826117db565b9050919050565b60006117e68261178d565b9050919050565b82818337600083830152505050565b60005b8381101561181a5780820151818401526020810190506117ff565b83811115611829576000848401525b50505050565b6000601f19601f8301169050919050565b6118498161176f565b811461185457600080fd5b50565b611860816117ad565b811461186b57600080fd5b5056fea365627a7a723158206bbfb6fc4a57c6e04f636eeecb4f9e1c546140f885902fc60265291cd0027cf46c6578706572696d656e74616cf564736f6c63430005100040",
  "source": "/*\r\n    Handcrafted by: Shubham Gupta\r\n\r\n    About: This contract registers the lender and shows the registered information on user's profile page.\r\n*/\r\n\r\npragma solidity >=0.4.17 <0.7.0;\r\npragma experimental ABIEncoderV2;\r\n\r\ncontract Lender {\r\n\r\n    struct Lender_Info {\r\n\r\n        string name;\r\n        uint age;\r\n        string residentialAddress;\r\n        string mobileNo;\r\n        string aadharNo;\r\n\r\n        uint numberOfLoans;\r\n        uint activeLoans;\r\n        address[] receiver;\r\n    }   \r\n\r\n    event LenderRegistered(string _name, uint _age, string _address, string _mobile, string _aadhar, address sender);\r\n\r\n\r\n    mapping (address => Lender_Info) public lenders;\r\n    mapping (address => bool) lender_accounts; \r\n\r\n    //This function is used to save the information entered by the borrower during registraton.\r\n    function Set_Lender (string memory _name, uint _age, string memory _address, string memory _mobile, string memory _aadhar) public {\r\n\r\n        address uaddress = msg.sender;\r\n        \r\n        require(lender_accounts[uaddress] == false, \"You have already registered on our platform\");\r\n\r\n        lenders[uaddress].name = _name;\r\n        lenders[uaddress].age = _age;\r\n        lenders[uaddress].residentialAddress = _address;\r\n        lenders[uaddress].mobileNo = _mobile;\r\n        lenders[uaddress].aadharNo = _aadhar;\r\n\r\n        lenders[uaddress].numberOfLoans = 0;\r\n        lenders[uaddress].activeLoans = 0;\r\n\r\n        emit LenderRegistered (_name, _age, _address, _mobile, _aadhar, msg.sender);\r\n\r\n        lender_accounts[uaddress] = true;\r\n    }\r\n\r\n    //This function returns the stored information through address\r\n    function Get_Borrower_Address () view public returns (address[] memory receiver, uint activeLoans) {\r\n        address uaddress = msg.sender;\r\n\r\n        return (lenders[uaddress].receiver, lenders[uaddress].activeLoans);\r\n    }\r\n\r\n    \r\n    function Login_Lender() view public returns (bool, string memory) {\r\n\r\n        address uaddress = msg.sender;\r\n        return (lender_accounts[uaddress], lenders[uaddress].name);\r\n    }\r\n\r\n    function Grant_Loan(address _receiver) public {\r\n        address uaddress = msg.sender;\r\n        address raddress = address(_receiver);\r\n        uint numberOfLoans = lenders[uaddress].numberOfLoans;\r\n        uint activeLoans = lenders[uaddress].activeLoans;\r\n\r\n        lenders[uaddress].receiver.push(raddress);\r\n        lenders[uaddress].numberOfLoans = numberOfLoans+1;  \r\n        lenders[uaddress].activeLoans = activeLoans+1;  \r\n    }\r\n\r\n    function Loan_Repaid (address _receiver) public returns (uint len) {\r\n        address uaddress = msg.sender;\r\n        address raddress = address(_receiver);\r\n        uint activeLoans = lenders[uaddress].activeLoans;\r\n\r\n        lenders[uaddress].receiver.push(raddress);\r\n        uint lLen = lenders[uaddress].receiver.length;\r\n\r\n        require(uaddress == 0x9060A1679c7d4106F3cac77a118C1EF40f9af4f6);\r\n        require(raddress == 0x0c5743d0C31af0A7374048EC5ec7E16996136C8b);\r\n        require(lLen == 1);\r\n            \r\n        for(uint i=0; i<lLen; i++) {\r\n            if(lenders[uaddress].receiver[i] == raddress) {\r\n                \r\n                for(uint j=i; j<lLen-1; j++) {\r\n                    lenders[uaddress].receiver[j] = lenders[uaddress].receiver[j+1];                    \r\n                }\r\n\r\n                lenders[uaddress].receiver.length--;\r\n                lenders[uaddress].activeLoans = activeLoans - 1;\r\n                break;\r\n            }\r\n        }\r\n\r\n        return lenders[uaddress].receiver.length;\r\n    }\r\n\r\n    function Status_View () view public returns (uint len, uint activeLoans) {\r\n        address uaddress = msg.sender;\r\n\r\n        return (lenders[uaddress].receiver.length, lenders[uaddress].activeLoans);\r\n    }\r\n}\r\n",
  "sourcePath": "C:/Users/hp/Desktop/lendingMarketplace/contracts/Lender.sol",
  "compiler": {
    "name": "solc",
    "version": "0.5.16+commit.9c3226ce.Emscripten.clang"
  },
  "schemaVersion": "3.0.22",
  "updatedAt": "2020-04-29T10:04:13.498Z",
  "networkType": "ethereum",
  "devdoc": {
    "methods": {}
  },
  "userdoc": {
    "methods": {}
  }
}