{
  "contractName": "Lender",
  "abi": [
    {
      "anonymous": false,
      "inputs": [
        {
          "indexed": false,
          "internalType": "string",
          "name": "_name",
          "type": "string"
        },
        {
          "indexed": false,
          "internalType": "uint256",
          "name": "_age",
          "type": "uint256"
        },
        {
          "indexed": false,
          "internalType": "string",
          "name": "_address",
          "type": "string"
        },
        {
          "indexed": false,
          "internalType": "string",
          "name": "_mobile",
          "type": "string"
        },
        {
          "indexed": false,
          "internalType": "string",
          "name": "_aadhar",
          "type": "string"
        },
        {
          "indexed": false,
          "internalType": "address",
          "name": "sender",
          "type": "address"
        }
      ],
      "name": "LenderRegistered",
      "type": "event"
    },
    {
      "constant": true,
      "inputs": [
        {
          "internalType": "address",
          "name": "",
          "type": "address"
        }
      ],
      "name": "lenders",
      "outputs": [
        {
          "internalType": "string",
          "name": "name",
          "type": "string"
        },
        {
          "internalType": "uint256",
          "name": "age",
          "type": "uint256"
        },
        {
          "internalType": "string",
          "name": "residentialAddress",
          "type": "string"
        },
        {
          "internalType": "string",
          "name": "mobileNo",
          "type": "string"
        },
        {
          "internalType": "string",
          "name": "aadharNo",
          "type": "string"
        },
        {
          "internalType": "uint256",
          "name": "numberOfLoans",
          "type": "uint256"
        },
        {
          "internalType": "uint256",
          "name": "activeLoans",
          "type": "uint256"
        }
      ],
      "payable": false,
      "stateMutability": "view",
      "type": "function"
    },
    {
      "constant": false,
      "inputs": [
        {
          "internalType": "string",
          "name": "_name",
          "type": "string"
        },
        {
          "internalType": "uint256",
          "name": "_age",
          "type": "uint256"
        },
        {
          "internalType": "string",
          "name": "_address",
          "type": "string"
        },
        {
          "internalType": "string",
          "name": "_mobile",
          "type": "string"
        },
        {
          "internalType": "string",
          "name": "_aadhar",
          "type": "string"
        }
      ],
      "name": "Set_Lender",
      "outputs": [],
      "payable": false,
      "stateMutability": "nonpayable",
      "type": "function"
    },
    {
      "constant": true,
      "inputs": [],
      "name": "Get_Borrower_Info",
      "outputs": [
        {
          "internalType": "address[50]",
          "name": "receiver",
          "type": "address[50]"
        },
        {
          "internalType": "uint256[50]",
          "name": "amount",
          "type": "uint256[50]"
        },
        {
          "internalType": "string[50]",
          "name": "dateOfLending",
          "type": "string[50]"
        }
      ],
      "payable": false,
      "stateMutability": "view",
      "type": "function"
    },
    {
      "constant": true,
      "inputs": [],
      "name": "Login_Lender",
      "outputs": [
        {
          "internalType": "bool",
          "name": "",
          "type": "bool"
        },
        {
          "internalType": "string",
          "name": "",
          "type": "string"
        }
      ],
      "payable": false,
      "stateMutability": "view",
      "type": "function"
    },
    {
      "constant": false,
      "inputs": [
        {
          "internalType": "address",
          "name": "_receiver",
          "type": "address"
        },
        {
          "internalType": "uint256",
          "name": "_amount",
          "type": "uint256"
        },
        {
          "internalType": "string",
          "name": "_date",
          "type": "string"
        }
      ],
      "name": "Grant_Loan",
      "outputs": [],
      "payable": false,
      "stateMutability": "nonpayable",
      "type": "function"
    }
  ],
  "bytecode": "0x608060405234801561001057600080fd5b50611859806100206000396000f3fe608060405234801561001057600080fd5b50600436106100575760003560e01c806302a2ad811461005c57806328c68f5c1461007857806328fd10d71461009457806369170d02146100ca578063bbeb40fc146100e9575b600080fd5b61007660048036036100719190810190611065565b610109565b005b610092600480360361008d91908101906110cc565b61049b565b005b6100ae60048036036100a9919081019061103c565b6107ff565b6040516100c19796959493929190611554565b60405180910390f35b6100d2610aa1565b6040516100e09291906114a7565b60405180910390f35b6100f1610bdd565b60405161010093929190611466565b60405180910390f35b600033905060008060008373ffffffffffffffffffffffffffffffffffffffff1673ffffffffffffffffffffffffffffffffffffffff16815260200190815260200160002060050154905060008060008473ffffffffffffffffffffffffffffffffffffffff1673ffffffffffffffffffffffffffffffffffffffff1681526020019081526020016000206006015490506101a2610e0a565b600260008573ffffffffffffffffffffffffffffffffffffffff1673ffffffffffffffffffffffffffffffffffffffff1681526020019081526020016000206040518060600160405290816000820160328060200260405190810160405280929190826032801561025e576020028201915b8160009054906101000a900473ffffffffffffffffffffffffffffffffffffffff1673ffffffffffffffffffffffffffffffffffffffff1681526020019060010190808311610214575b50505050508152602001603282016032806020026040519081016040528092919082603280156102a3576020028201915b81548152602001906001019080831161028f575b5050505050815260200160648201603280602002604051908101604052809291906000905b8282101561037b578382018054600181600116156101000203166002900480601f0160208091040260200160405190810160405280929190818152602001828054600181600116156101000203166002900480156103675780601f1061033c57610100808354040283529160200191610367565b820191906000526020600020905b81548152906001019060200180831161034a57829003601f168201915b5050505050815260200190600101906102c8565b50505050815250509050868160000151846032811061039657fe5b602002019073ffffffffffffffffffffffffffffffffffffffff16908173ffffffffffffffffffffffffffffffffffffffff168152505085816020015184603281106103de57fe5b60200201818152505084816040015184603281106103f857fe5b6020020181905250600183016000808673ffffffffffffffffffffffffffffffffffffffff1673ffffffffffffffffffffffffffffffffffffffff16815260200190815260200160002060050181905550600182016000808673ffffffffffffffffffffffffffffffffffffffff1673ffffffffffffffffffffffffffffffffffffffff1681526020019081526020016000206006018190555050505050505050565b600033905060001515600160008373ffffffffffffffffffffffffffffffffffffffff1673ffffffffffffffffffffffffffffffffffffffff16815260200190815260200160002060009054906101000a900460ff16151514610533576040517f08c379a000000000000000000000000000000000000000000000000000000000815260040161052a906115df565b60405180910390fd5b856000808373ffffffffffffffffffffffffffffffffffffffff1673ffffffffffffffffffffffffffffffffffffffff1681526020019081526020016000206000019080519060200190610588929190610e3d565b50846000808373ffffffffffffffffffffffffffffffffffffffff1673ffffffffffffffffffffffffffffffffffffffff16815260200190815260200160002060010181905550836000808373ffffffffffffffffffffffffffffffffffffffff1673ffffffffffffffffffffffffffffffffffffffff1681526020019081526020016000206002019080519060200190610624929190610e3d565b50826000808373ffffffffffffffffffffffffffffffffffffffff1673ffffffffffffffffffffffffffffffffffffffff168152602001908152602001600020600301908051906020019061067a929190610e3d565b50816000808373ffffffffffffffffffffffffffffffffffffffff1673ffffffffffffffffffffffffffffffffffffffff16815260200190815260200160002060040190805190602001906106d0929190610e3d565b5060008060008373ffffffffffffffffffffffffffffffffffffffff1673ffffffffffffffffffffffffffffffffffffffff1681526020019081526020016000206005018190555060008060008373ffffffffffffffffffffffffffffffffffffffff1673ffffffffffffffffffffffffffffffffffffffff168152602001908152602001600020600601819055507f0a5ea1e01bc88e61123d7daf9b08abec45b2becbbaaba4e8f7c36ac71ac5eb74868686868633604051610798969594939291906114d7565b60405180910390a160018060008373ffffffffffffffffffffffffffffffffffffffff1673ffffffffffffffffffffffffffffffffffffffff16815260200190815260200160002060006101000a81548160ff021916908315150217905550505050505050565b6000602052806000526040600020600091509050806000018054600181600116156101000203166002900480601f0160208091040260200160405190810160405280929190818152602001828054600181600116156101000203166002900480156108ab5780601f10610880576101008083540402835291602001916108ab565b820191906000526020600020905b81548152906001019060200180831161088e57829003601f168201915b505050505090806001015490806002018054600181600116156101000203166002900480601f01602080910402602001604051908101604052809291908181526020018280546001816001161561010002031660029004801561094f5780601f106109245761010080835404028352916020019161094f565b820191906000526020600020905b81548152906001019060200180831161093257829003601f168201915b505050505090806003018054600181600116156101000203166002900480601f0160208091040260200160405190810160405280929190818152602001828054600181600116156101000203166002900480156109ed5780601f106109c2576101008083540402835291602001916109ed565b820191906000526020600020905b8154815290600101906020018083116109d057829003601f168201915b505050505090806004018054600181600116156101000203166002900480601f016020809104026020016040519081016040528092919081815260200182805460018160011615610100020316600290048015610a8b5780601f10610a6057610100808354040283529160200191610a8b565b820191906000526020600020905b815481529060010190602001808311610a6e57829003601f168201915b5050505050908060050154908060060154905087565b600060606000339050600160008273ffffffffffffffffffffffffffffffffffffffff1673ffffffffffffffffffffffffffffffffffffffff16815260200190815260200160002060009054906101000a900460ff166000808373ffffffffffffffffffffffffffffffffffffffff1673ffffffffffffffffffffffffffffffffffffffff168152602001908152602001600020600001808054600181600116156101000203166002900480601f016020809104026020016040519081016040528092919081815260200182805460018160011615610100020316600290048015610bcd5780601f10610ba257610100808354040283529160200191610bcd565b820191906000526020600020905b815481529060010190602001808311610bb057829003601f168201915b5050505050905092509250509091565b610be5610ebd565b610bed610ee0565b610bf5610f03565b6000339050610c02610e0a565b600260008373ffffffffffffffffffffffffffffffffffffffff1673ffffffffffffffffffffffffffffffffffffffff16815260200190815260200160002060405180606001604052908160008201603280602002604051908101604052809291908260328015610cbe576020028201915b8160009054906101000a900473ffffffffffffffffffffffffffffffffffffffff1673ffffffffffffffffffffffffffffffffffffffff1681526020019060010190808311610c74575b5050505050815260200160328201603280602002604051908101604052809291908260328015610d03576020028201915b815481526020019060010190808311610cef575b5050505050815260200160648201603280602002604051908101604052809291906000905b82821015610ddb578382018054600181600116156101000203166002900480601f016020809104026020016040519081016040528092919081815260200182805460018160011615610100020316600290048015610dc75780601f10610d9c57610100808354040283529160200191610dc7565b820191906000526020600020905b815481529060010190602001808311610daa57829003601f168201915b505050505081526020019060010190610d28565b505050508152505090508060000151816020015182604001518292508191508090509450945094505050909192565b6040518060600160405280610e1d610f2b565b8152602001610e2a610f4e565b8152602001610e37610f71565b81525090565b828054600181600116156101000203166002900490600052602060002090601f016020900481019282601f10610e7e57805160ff1916838001178555610eac565b82800160010185558215610eac579182015b82811115610eab578251825591602001919060010190610e90565b5b509050610eb99190610f99565b5090565b604051806106400160405280603290602082028038833980820191505090505090565b604051806106400160405280603290602082028038833980820191505090505090565b6040518061064001604052806032905b6060815260200190600190039081610f135790505090565b604051806106400160405280603290602082028038833980820191505090505090565b604051806106400160405280603290602082028038833980820191505090505090565b6040518061064001604052806032905b6060815260200190600190039081610f815790505090565b610fbb91905b80821115610fb7576000816000905550600101610f9f565b5090565b90565b600081359050610fcd816117e8565b92915050565b600082601f830112610fe457600080fd5b8135610ff7610ff28261162c565b6115ff565b9150808252602083016020830185838301111561101357600080fd5b61101e838284611795565b50505092915050565b600081359050611036816117ff565b92915050565b60006020828403121561104e57600080fd5b600061105c84828501610fbe565b91505092915050565b60008060006060848603121561107a57600080fd5b600061108886828701610fbe565b935050602061109986828701611027565b925050604084013567ffffffffffffffff8111156110b657600080fd5b6110c286828701610fd3565b9150509250925092565b600080600080600060a086880312156110e457600080fd5b600086013567ffffffffffffffff8111156110fe57600080fd5b61110a88828901610fd3565b955050602061111b88828901611027565b945050604086013567ffffffffffffffff81111561113857600080fd5b61114488828901610fd3565b935050606086013567ffffffffffffffff81111561116157600080fd5b61116d88828901610fd3565b925050608086013567ffffffffffffffff81111561118a57600080fd5b61119688828901610fd3565b9150509295509295909350565b60006111af83836111f6565b60208301905092915050565b60006111c78383611370565b905092915050565b60006111db8383611448565b60208301905092915050565b6111f08161175f565b82525050565b6111ff81611717565b82525050565b61120e81611676565b61121881846116d4565b925061122382611658565b8060005b8381101561125457815161123b87826111a3565b9650611246836116ad565b925050600181019050611227565b505050505050565b600061126782611681565b61127181856116df565b93508360208202850161128385611662565b8060005b858110156112bf57848403895281516112a085826111bb565b94506112ab836116ba565b925060208a01995050600181019050611287565b50829750879550505050505092915050565b6112da8161168c565b6112e481846116ea565b92506112ef8261166c565b8060005b8381101561132057815161130787826111cf565b9650611312836116c7565b9250506001810190506112f3565b505050505050565b61133181611729565b82525050565b6000611342826116a2565b61134c8185611706565b935061135c8185602086016117a4565b611365816117d7565b840191505092915050565b600061137b82611697565b61138581856116f5565b93506113958185602086016117a4565b61139e816117d7565b840191505092915050565b60006113b482611697565b6113be8185611706565b93506113ce8185602086016117a4565b6113d7816117d7565b840191505092915050565b60006113ef602b83611706565b91507f596f75206861766520616c72656164792072656769737465726564206f6e206f60008301527f757220706c6174666f726d0000000000000000000000000000000000000000006020830152604082019050919050565b61145181611755565b82525050565b61146081611755565b82525050565b6000610ca08201905061147c6000830186611205565b61148a6106408301856112d1565b818103610c8083015261149d818461125c565b9050949350505050565b60006040820190506114bc6000830185611328565b81810360208301526114ce8184611337565b90509392505050565b600060c08201905081810360008301526114f18189611337565b90506115006020830188611457565b81810360408301526115128187611337565b905081810360608301526115268186611337565b9050818103608083015261153a8185611337565b905061154960a08301846111e7565b979650505050505050565b600060e082019050818103600083015261156e818a6113a9565b905061157d6020830189611457565b818103604083015261158f81886113a9565b905081810360608301526115a381876113a9565b905081810360808301526115b781866113a9565b90506115c660a0830185611457565b6115d360c0830184611457565b98975050505050505050565b600060208201905081810360008301526115f8816113e2565b9050919050565b6000604051905081810181811067ffffffffffffffff8211171561162257600080fd5b8060405250919050565b600067ffffffffffffffff82111561164357600080fd5b601f19601f8301169050602081019050919050565b6000819050919050565b6000819050919050565b6000819050919050565b600060329050919050565b600060329050919050565b600060329050919050565b600081519050919050565b600081519050919050565b6000602082019050919050565b6000602082019050919050565b6000602082019050919050565b600081905092915050565b600081905092915050565b600081905092915050565b600082825260208201905092915050565b600082825260208201905092915050565b600061172282611735565b9050919050565b60008115159050919050565b600073ffffffffffffffffffffffffffffffffffffffff82169050919050565b6000819050919050565b600061176a82611771565b9050919050565b600061177c82611783565b9050919050565b600061178e82611735565b9050919050565b82818337600083830152505050565b60005b838110156117c25780820151818401526020810190506117a7565b838111156117d1576000848401525b50505050565b6000601f19601f8301169050919050565b6117f181611717565b81146117fc57600080fd5b50565b61180881611755565b811461181357600080fd5b5056fea365627a7a723158200453961fbda391882bce27cab89ab7757a75f550b5d9727b36c8b577ce8879166c6578706572696d656e74616cf564736f6c63430005100040",
  "source": "/*\r\n    Handcrafted by: Shubham Gupta\r\n\r\n    About: This contract registers the lender and shows the registered information on user's profile page.\r\n*/\r\n\r\npragma solidity >=0.4.17 <0.7.0;\r\npragma experimental ABIEncoderV2;\r\n\r\ncontract Lender {\r\n\r\n    struct Borrower_Info {\r\n        address[50] receiver;\r\n        uint[50] amount;\r\n        string[50] dateOfLending;\r\n    }\r\n\r\n    struct Lender_Info {\r\n\r\n        string name;\r\n        uint age;\r\n        string residentialAddress;\r\n        string mobileNo;\r\n        string aadharNo;\r\n\r\n        uint numberOfLoans;\r\n        uint activeLoans;\r\n    }   \r\n\r\n    event LenderRegistered(string _name, uint _age, string _address, string _mobile, string _aadhar, address sender);\r\n\r\n\r\n    mapping (address => Lender_Info) public lenders;\r\n    mapping (address => bool) lender_accounts; \r\n    mapping (address => Borrower_Info) borrowers;\r\n\r\n    //This function is used to save the information entered by the borrower during registraton.\r\n    function Set_Lender (string memory _name, uint _age, string memory _address, string memory _mobile, string memory _aadhar) public {\r\n\r\n        address uaddress = msg.sender;\r\n        \r\n        require(lender_accounts[uaddress] == false, \"You have already registered on our platform\");\r\n\r\n        lenders[uaddress].name = _name;\r\n        lenders[uaddress].age = _age;\r\n        lenders[uaddress].residentialAddress = _address;\r\n        lenders[uaddress].mobileNo = _mobile;\r\n        lenders[uaddress].aadharNo = _aadhar;\r\n\r\n        lenders[uaddress].numberOfLoans = 0;\r\n        lenders[uaddress].activeLoans = 0;\r\n\r\n        emit LenderRegistered (_name, _age, _address, _mobile, _aadhar, msg.sender);\r\n\r\n        lender_accounts[uaddress] = true;\r\n    }\r\n\r\n    //This function returns the stored information through address\r\n    function Get_Borrower_Info () view public returns (address[50] memory receiver, uint[50] memory amount, string[50] memory dateOfLending) {\r\n        address uaddress = msg.sender;\r\n        Borrower_Info memory borrower = borrowers[uaddress];\r\n\r\n        return (borrower.receiver, borrower.amount, borrower.dateOfLending);\r\n    }\r\n\r\n    \r\n    function Login_Lender() view public returns (bool, string memory) {\r\n\r\n        address uaddress = msg.sender;\r\n        return (lender_accounts[uaddress], lenders[uaddress].name);\r\n    }\r\n\r\n    function Grant_Loan(address _receiver, uint _amount, string memory _date) public {\r\n        address uaddress = msg.sender;\r\n        uint numberOfLoans = lenders[uaddress].numberOfLoans;\r\n        uint activeLoans = lenders[uaddress].activeLoans;\r\n        Borrower_Info memory borrower = borrowers[uaddress];\r\n\r\n        borrower.receiver[numberOfLoans] = address(_receiver);\r\n        borrower.amount[numberOfLoans] = _amount;\r\n        borrower.dateOfLending[numberOfLoans] = _date;\r\n\r\n        lenders[uaddress].numberOfLoans = numberOfLoans+1;  \r\n        lenders[uaddress].activeLoans = activeLoans+1;  \r\n    }\r\n}\r\n",
  "sourcePath": "C:/Users/hp/Desktop/lendingMarketplace/contracts/Lender.sol",
  "compiler": {
    "name": "solc",
    "version": "0.5.16+commit.9c3226ce.Emscripten.clang"
  },
  "schemaVersion": "3.0.22",
  "updatedAt": "2020-04-22T09:22:44.138Z",
  "networkType": "ethereum",
  "devdoc": {
    "methods": {}
  },
  "userdoc": {
    "methods": {}
  }
}