{
  "contractName": "Lender",
  "abi": [
    {
      "anonymous": false,
      "inputs": [
        {
          "indexed": false,
          "internalType": "string",
          "name": "_name",
          "type": "string"
        },
        {
          "indexed": false,
          "internalType": "uint256",
          "name": "_age",
          "type": "uint256"
        },
        {
          "indexed": false,
          "internalType": "string",
          "name": "_address",
          "type": "string"
        },
        {
          "indexed": false,
          "internalType": "string",
          "name": "_mobile",
          "type": "string"
        },
        {
          "indexed": false,
          "internalType": "string",
          "name": "_aadhar",
          "type": "string"
        },
        {
          "indexed": false,
          "internalType": "address",
          "name": "sender",
          "type": "address"
        }
      ],
      "name": "LenderRegistered",
      "type": "event"
    },
    {
      "constant": false,
      "inputs": [
        {
          "internalType": "string",
          "name": "_name",
          "type": "string"
        },
        {
          "internalType": "uint256",
          "name": "_age",
          "type": "uint256"
        },
        {
          "internalType": "string",
          "name": "_address",
          "type": "string"
        },
        {
          "internalType": "string",
          "name": "_mobile",
          "type": "string"
        },
        {
          "internalType": "string",
          "name": "_aadhar",
          "type": "string"
        }
      ],
      "name": "Set_Lender",
      "outputs": [],
      "payable": false,
      "stateMutability": "nonpayable",
      "type": "function"
    },
    {
      "constant": true,
      "inputs": [],
      "name": "Get_Lender",
      "outputs": [
        {
          "internalType": "string",
          "name": "",
          "type": "string"
        },
        {
          "internalType": "uint256",
          "name": "",
          "type": "uint256"
        },
        {
          "internalType": "string",
          "name": "",
          "type": "string"
        },
        {
          "internalType": "string",
          "name": "",
          "type": "string"
        },
        {
          "internalType": "string",
          "name": "",
          "type": "string"
        }
      ],
      "payable": false,
      "stateMutability": "view",
      "type": "function"
    },
    {
      "constant": true,
      "inputs": [],
      "name": "Login_Lender",
      "outputs": [
        {
          "internalType": "bool",
          "name": "",
          "type": "bool"
        },
        {
          "internalType": "string",
          "name": "",
          "type": "string"
        }
      ],
      "payable": false,
      "stateMutability": "view",
      "type": "function"
    },
    {
      "constant": false,
      "inputs": [
        {
          "internalType": "address",
          "name": "_receiver",
          "type": "address"
        },
        {
          "internalType": "uint256",
          "name": "_amount",
          "type": "uint256"
        },
        {
          "internalType": "string",
          "name": "_date",
          "type": "string"
        }
      ],
      "name": "Grant_Loan",
      "outputs": [],
      "payable": false,
      "stateMutability": "nonpayable",
      "type": "function"
    }
  ],
  "bytecode": "0x608060405234801561001057600080fd5b50611251806100206000396000f3fe608060405234801561001057600080fd5b506004361061004c5760003560e01c806302a2ad811461005157806328c68f5c1461006d57806369170d0214610089578063839bbc74146100a8575b600080fd5b61006b60048036036100669190810190610d54565b6100ca565b005b61008760048036036100829190810190610dbb565b6103cc565b005b6100916106e9565b60405161009f929190610f5e565b60405180910390f35b6100b0610825565b6040516100c1959493929190610f8e565b60405180910390f35b600033905060008060008373ffffffffffffffffffffffffffffffffffffffff1673ffffffffffffffffffffffffffffffffffffffff16815260200190815260200160002060050154905061011d610b5a565b600260008473ffffffffffffffffffffffffffffffffffffffff1673ffffffffffffffffffffffffffffffffffffffff168152602001908152602001600020604051806060016040529081600082016032806020026040519081016040528092919082603280156101d9576020028201915b8160009054906101000a900473ffffffffffffffffffffffffffffffffffffffff1673ffffffffffffffffffffffffffffffffffffffff168152602001906001019080831161018f575b505050505081526020016032820160328060200260405190810160405280929190826032801561021e576020028201915b81548152602001906001019080831161020a575b5050505050815260200160648201603280602002604051908101604052809291906000905b828210156102f6578382018054600181600116156101000203166002900480601f0160208091040260200160405190810160405280929190818152602001828054600181600116156101000203166002900480156102e25780601f106102b7576101008083540402835291602001916102e2565b820191906000526020600020905b8154815290600101906020018083116102c557829003601f168201915b505050505081526020019060010190610243565b50505050815250509050858160000151836032811061031157fe5b602002019073ffffffffffffffffffffffffffffffffffffffff16908173ffffffffffffffffffffffffffffffffffffffff1681525050848160200151836032811061035957fe5b602002018181525050838160400151836032811061037357fe5b6020020181905250600182016000808573ffffffffffffffffffffffffffffffffffffffff1673ffffffffffffffffffffffffffffffffffffffff16815260200190815260200160002060050181905550505050505050565b600033905060001515600160008373ffffffffffffffffffffffffffffffffffffffff1673ffffffffffffffffffffffffffffffffffffffff16815260200190815260200160002060009054906101000a900460ff16151514610464576040517f08c379a000000000000000000000000000000000000000000000000000000000815260040161045b9061107a565b60405180910390fd5b856000808373ffffffffffffffffffffffffffffffffffffffff1673ffffffffffffffffffffffffffffffffffffffff16815260200190815260200160002060000190805190602001906104b9929190610b8d565b50846000808373ffffffffffffffffffffffffffffffffffffffff1673ffffffffffffffffffffffffffffffffffffffff16815260200190815260200160002060010181905550836000808373ffffffffffffffffffffffffffffffffffffffff1673ffffffffffffffffffffffffffffffffffffffff1681526020019081526020016000206002019080519060200190610555929190610b8d565b50826000808373ffffffffffffffffffffffffffffffffffffffff1673ffffffffffffffffffffffffffffffffffffffff16815260200190815260200160002060030190805190602001906105ab929190610b8d565b50816000808373ffffffffffffffffffffffffffffffffffffffff1673ffffffffffffffffffffffffffffffffffffffff1681526020019081526020016000206004019080519060200190610601929190610b8d565b5060008060008373ffffffffffffffffffffffffffffffffffffffff1673ffffffffffffffffffffffffffffffffffffffff168152602001908152602001600020600501819055507f0a5ea1e01bc88e61123d7daf9b08abec45b2becbbaaba4e8f7c36ac71ac5eb7486868686863360405161068296959493929190610ffd565b60405180910390a160018060008373ffffffffffffffffffffffffffffffffffffffff1673ffffffffffffffffffffffffffffffffffffffff16815260200190815260200160002060006101000a81548160ff021916908315150217905550505050505050565b600060606000339050600160008273ffffffffffffffffffffffffffffffffffffffff1673ffffffffffffffffffffffffffffffffffffffff16815260200190815260200160002060009054906101000a900460ff166000808373ffffffffffffffffffffffffffffffffffffffff1673ffffffffffffffffffffffffffffffffffffffff168152602001908152602001600020600001808054600181600116156101000203166002900480601f0160208091040260200160405190810160405280929190818152602001828054600181600116156101000203166002900480156108155780601f106107ea57610100808354040283529160200191610815565b820191906000526020600020905b8154815290600101906020018083116107f857829003601f168201915b5050505050905092509250509091565b606060006060806060600033905061083b610c0d565b6000808373ffffffffffffffffffffffffffffffffffffffff1673ffffffffffffffffffffffffffffffffffffffff1681526020019081526020016000206040518060c0016040529081600082018054600181600116156101000203166002900480601f01602080910402602001604051908101604052809291908181526020018280546001816001161561010002031660029004801561091d5780601f106108f25761010080835404028352916020019161091d565b820191906000526020600020905b81548152906001019060200180831161090057829003601f168201915b5050505050815260200160018201548152602001600282018054600181600116156101000203166002900480601f0160208091040260200160405190810160405280929190818152602001828054600181600116156101000203166002900480156109c95780601f1061099e576101008083540402835291602001916109c9565b820191906000526020600020905b8154815290600101906020018083116109ac57829003601f168201915b50505050508152602001600382018054600181600116156101000203166002900480601f016020809104026020016040519081016040528092919081815260200182805460018160011615610100020316600290048015610a6b5780601f10610a4057610100808354040283529160200191610a6b565b820191906000526020600020905b815481529060010190602001808311610a4e57829003601f168201915b50505050508152602001600482018054600181600116156101000203166002900480601f016020809104026020016040519081016040528092919081815260200182805460018160011615610100020316600290048015610b0d5780601f10610ae257610100808354040283529160200191610b0d565b820191906000526020600020905b815481529060010190602001808311610af057829003601f168201915b505050505081526020016005820154815250509050806000015181602001518260400151836060015184608001518494508292508191508090509650965096509650965050509091929394565b6040518060600160405280610b6d610c43565b8152602001610b7a610c66565b8152602001610b87610c89565b81525090565b828054600181600116156101000203166002900490600052602060002090601f016020900481019282601f10610bce57805160ff1916838001178555610bfc565b82800160010185558215610bfc579182015b82811115610bfb578251825591602001919060010190610be0565b5b509050610c099190610cb1565b5090565b6040518060c001604052806060815260200160008152602001606081526020016060815260200160608152602001600081525090565b604051806106400160405280603290602082028038833980820191505090505090565b604051806106400160405280603290602082028038833980820191505090505090565b6040518061064001604052806032905b6060815260200190600190039081610c995790505090565b610cd391905b80821115610ccf576000816000905550600101610cb7565b5090565b90565b600081359050610ce5816111e0565b92915050565b600082601f830112610cfc57600080fd5b8135610d0f610d0a826110c7565b61109a565b91508082526020830160208301858383011115610d2b57600080fd5b610d3683828461118d565b50505092915050565b600081359050610d4e816111f7565b92915050565b600080600060608486031215610d6957600080fd5b6000610d7786828701610cd6565b9350506020610d8886828701610d3f565b925050604084013567ffffffffffffffff811115610da557600080fd5b610db186828701610ceb565b9150509250925092565b600080600080600060a08688031215610dd357600080fd5b600086013567ffffffffffffffff811115610ded57600080fd5b610df988828901610ceb565b9550506020610e0a88828901610d3f565b945050604086013567ffffffffffffffff811115610e2757600080fd5b610e3388828901610ceb565b935050606086013567ffffffffffffffff811115610e5057600080fd5b610e5c88828901610ceb565b925050608086013567ffffffffffffffff811115610e7957600080fd5b610e8588828901610ceb565b9150509295509295909350565b610e9b81611157565b82525050565b610eaa81611121565b82525050565b6000610ebb826110f3565b610ec581856110fe565b9350610ed581856020860161119c565b610ede816111cf565b840191505092915050565b6000610ef6602b836110fe565b91507f596f75206861766520616c72656164792072656769737465726564206f6e206f60008301527f757220706c6174666f726d0000000000000000000000000000000000000000006020830152604082019050919050565b610f588161114d565b82525050565b6000604082019050610f736000830185610ea1565b8181036020830152610f858184610eb0565b90509392505050565b600060a0820190508181036000830152610fa88188610eb0565b9050610fb76020830187610f4f565b8181036040830152610fc98186610eb0565b90508181036060830152610fdd8185610eb0565b90508181036080830152610ff18184610eb0565b90509695505050505050565b600060c08201905081810360008301526110178189610eb0565b90506110266020830188610f4f565b81810360408301526110388187610eb0565b9050818103606083015261104c8186610eb0565b905081810360808301526110608185610eb0565b905061106f60a0830184610e92565b979650505050505050565b6000602082019050818103600083015261109381610ee9565b9050919050565b6000604051905081810181811067ffffffffffffffff821117156110bd57600080fd5b8060405250919050565b600067ffffffffffffffff8211156110de57600080fd5b601f19601f8301169050602081019050919050565b600081519050919050565b600082825260208201905092915050565b600061111a8261112d565b9050919050565b60008115159050919050565b600073ffffffffffffffffffffffffffffffffffffffff82169050919050565b6000819050919050565b600061116282611169565b9050919050565b60006111748261117b565b9050919050565b60006111868261112d565b9050919050565b82818337600083830152505050565b60005b838110156111ba57808201518184015260208101905061119f565b838111156111c9576000848401525b50505050565b6000601f19601f8301169050919050565b6111e98161110f565b81146111f457600080fd5b50565b6112008161114d565b811461120b57600080fd5b5056fea365627a7a7231582087397493833d450390f70d931437a3a7597f2ae45ff6f5518adc98c9b997e2cc6c6578706572696d656e74616cf564736f6c63430005100040",
  "source": "/*\r\n    Handcrafted by: Shubham Gupta\r\n\r\n    About: This contract registers the lender and shows the registered information on user's profile page.\r\n*/\r\n\r\npragma solidity >=0.4.17 <0.7.0;\r\npragma experimental ABIEncoderV2;\r\n\r\ncontract Lender {\r\n\r\n    struct Borrower_Info {\r\n        address[50] receiver;\r\n        uint[50] amount;\r\n        string[50] date_of_lending;\r\n    }\r\n\r\n    struct Lender_Info {\r\n\r\n        string name;\r\n        uint age;\r\n        string residential_address;\r\n        string mobile_no;\r\n        string aadhar_no;\r\n\r\n        uint number_of_loans;\r\n    }   \r\n\r\n    event LenderRegistered(string _name, uint _age, string _address, string _mobile, string _aadhar, address sender);\r\n\r\n\r\n    mapping (address => Lender_Info) lenders;\r\n    mapping (address => bool) lender_accounts; \r\n    mapping (address => Borrower_Info) borrowers;\r\n\r\n    //This function is used to save the information entered by the borrower during registraton.\r\n    function Set_Lender (string memory _name, uint _age, string memory _address, string memory _mobile, string memory _aadhar) public {\r\n\r\n        address uaddress = msg.sender;\r\n        \r\n        require(lender_accounts[uaddress] == false, \"You have already registered on our platform\");\r\n\r\n        lenders[uaddress].name = _name;\r\n        lenders[uaddress].age = _age;\r\n        lenders[uaddress].residential_address = _address;\r\n        lenders[uaddress].mobile_no = _mobile;\r\n        lenders[uaddress].aadhar_no = _aadhar;\r\n\r\n        lenders[uaddress].number_of_loans = 0;\r\n\r\n        emit LenderRegistered (_name, _age, _address, _mobile, _aadhar, msg.sender);\r\n\r\n        lender_accounts[uaddress] = true;\r\n    }\r\n\r\n    //This function returns the stored information through address\r\n    function Get_Lender () view public returns (string memory, uint, string memory, string memory, string memory) {\r\n        address uaddress = msg.sender;\r\n        Lender_Info memory lender = lenders[uaddress];\r\n\r\n        return (lender.name, lender.age, lender.residential_address, lender.mobile_no, lender.aadhar_no);\r\n    }\r\n\r\n    \r\n    function Login_Lender() view public returns (bool, string memory) {\r\n\r\n        address uaddress = msg.sender;\r\n        return (lender_accounts[uaddress], lenders[uaddress].name);\r\n    }\r\n\r\n    function Grant_Loan(address _receiver, uint _amount, string memory _date) public {\r\n        address uaddress = msg.sender;\r\n        uint number_of_loans = lenders[uaddress].number_of_loans;\r\n        Borrower_Info memory borrower = borrowers[uaddress];\r\n\r\n        borrower.receiver[number_of_loans] = address(_receiver);\r\n        borrower.amount[number_of_loans] = _amount;\r\n        borrower.date_of_lending[number_of_loans] = _date;\r\n\r\n        lenders[uaddress].number_of_loans = number_of_loans+1;    \r\n    }\r\n}\r\n",
  "sourcePath": "C:/Users/hp/Desktop/lendingMarketplace/contracts/Lender.sol",
  "compiler": {
    "name": "solc",
    "version": "0.5.16+commit.9c3226ce.Emscripten.clang"
  },
  "schemaVersion": "3.0.22",
  "updatedAt": "2020-04-13T06:41:50.930Z",
  "networkType": "ethereum",
  "devdoc": {
    "methods": {}
  },
  "userdoc": {
    "methods": {}
  }
}