{
  "contractName": "Lender",
  "abi": [
    {
      "anonymous": false,
      "inputs": [
        {
          "indexed": false,
          "internalType": "string",
          "name": "_name",
          "type": "string"
        },
        {
          "indexed": false,
          "internalType": "uint256",
          "name": "_age",
          "type": "uint256"
        },
        {
          "indexed": false,
          "internalType": "string",
          "name": "_address",
          "type": "string"
        },
        {
          "indexed": false,
          "internalType": "string",
          "name": "_mobile",
          "type": "string"
        },
        {
          "indexed": false,
          "internalType": "string",
          "name": "_aadhar",
          "type": "string"
        },
        {
          "indexed": false,
          "internalType": "address",
          "name": "sender",
          "type": "address"
        }
      ],
      "name": "LenderRegistered",
      "type": "event"
    },
    {
      "constant": true,
      "inputs": [
        {
          "internalType": "address",
          "name": "",
          "type": "address"
        }
      ],
      "name": "lenders",
      "outputs": [
        {
          "internalType": "string",
          "name": "name",
          "type": "string"
        },
        {
          "internalType": "uint256",
          "name": "age",
          "type": "uint256"
        },
        {
          "internalType": "string",
          "name": "residentialAddress",
          "type": "string"
        },
        {
          "internalType": "string",
          "name": "mobileNo",
          "type": "string"
        },
        {
          "internalType": "string",
          "name": "aadharNo",
          "type": "string"
        },
        {
          "internalType": "uint256",
          "name": "numberOfLoans",
          "type": "uint256"
        },
        {
          "internalType": "uint256",
          "name": "activeLoans",
          "type": "uint256"
        }
      ],
      "payable": false,
      "stateMutability": "view",
      "type": "function"
    },
    {
      "constant": false,
      "inputs": [
        {
          "internalType": "string",
          "name": "_name",
          "type": "string"
        },
        {
          "internalType": "uint256",
          "name": "_age",
          "type": "uint256"
        },
        {
          "internalType": "string",
          "name": "_address",
          "type": "string"
        },
        {
          "internalType": "string",
          "name": "_mobile",
          "type": "string"
        },
        {
          "internalType": "string",
          "name": "_aadhar",
          "type": "string"
        }
      ],
      "name": "Set_Lender",
      "outputs": [],
      "payable": false,
      "stateMutability": "nonpayable",
      "type": "function"
    },
    {
      "constant": true,
      "inputs": [],
      "name": "Get_Borrower_Address",
      "outputs": [
        {
          "internalType": "address[]",
          "name": "receiver",
          "type": "address[]"
        }
      ],
      "payable": false,
      "stateMutability": "view",
      "type": "function"
    },
    {
      "constant": true,
      "inputs": [],
      "name": "Login_Lender",
      "outputs": [
        {
          "internalType": "bool",
          "name": "",
          "type": "bool"
        },
        {
          "internalType": "string",
          "name": "",
          "type": "string"
        }
      ],
      "payable": false,
      "stateMutability": "view",
      "type": "function"
    },
    {
      "constant": false,
      "inputs": [
        {
          "internalType": "address",
          "name": "_receiver",
          "type": "address"
        }
      ],
      "name": "Grant_Loan",
      "outputs": [],
      "payable": false,
      "stateMutability": "nonpayable",
      "type": "function"
    }
  ],
  "bytecode": "0x608060405234801561001057600080fd5b50611212806100206000396000f3fe608060405234801561001057600080fd5b50600436106100575760003560e01c806328c68f5c1461005c57806328fd10d71461007857806369170d02146100ae5780636f2624d5146100cd578063916295f2146100eb575b600080fd5b61007660048036036100719190810190610c3c565b610107565b005b610092600480360361008d9190810190610c13565b61046b565b6040516100a59796959493929190610f6c565b60405180910390f35b6100b661070d565b6040516100c4929190610ebf565b60405180910390f35b6100d5610849565b6040516100e29190610e9d565b60405180910390f35b61010560048036036101009190810190610c13565b61091c565b005b600033905060001515600160008373ffffffffffffffffffffffffffffffffffffffff1673ffffffffffffffffffffffffffffffffffffffff16815260200190815260200160002060009054906101000a900460ff1615151461019f576040517f08c379a000000000000000000000000000000000000000000000000000000000815260040161019690610ff7565b60405180910390fd5b856000808373ffffffffffffffffffffffffffffffffffffffff1673ffffffffffffffffffffffffffffffffffffffff16815260200190815260200160002060000190805190602001906101f4929190610af0565b50846000808373ffffffffffffffffffffffffffffffffffffffff1673ffffffffffffffffffffffffffffffffffffffff16815260200190815260200160002060010181905550836000808373ffffffffffffffffffffffffffffffffffffffff1673ffffffffffffffffffffffffffffffffffffffff1681526020019081526020016000206002019080519060200190610290929190610af0565b50826000808373ffffffffffffffffffffffffffffffffffffffff1673ffffffffffffffffffffffffffffffffffffffff16815260200190815260200160002060030190805190602001906102e6929190610af0565b50816000808373ffffffffffffffffffffffffffffffffffffffff1673ffffffffffffffffffffffffffffffffffffffff168152602001908152602001600020600401908051906020019061033c929190610af0565b5060008060008373ffffffffffffffffffffffffffffffffffffffff1673ffffffffffffffffffffffffffffffffffffffff1681526020019081526020016000206005018190555060008060008373ffffffffffffffffffffffffffffffffffffffff1673ffffffffffffffffffffffffffffffffffffffff168152602001908152602001600020600601819055507f0a5ea1e01bc88e61123d7daf9b08abec45b2becbbaaba4e8f7c36ac71ac5eb7486868686863360405161040496959493929190610eef565b60405180910390a160018060008373ffffffffffffffffffffffffffffffffffffffff1673ffffffffffffffffffffffffffffffffffffffff16815260200190815260200160002060006101000a81548160ff021916908315150217905550505050505050565b6000602052806000526040600020600091509050806000018054600181600116156101000203166002900480601f0160208091040260200160405190810160405280929190818152602001828054600181600116156101000203166002900480156105175780601f106104ec57610100808354040283529160200191610517565b820191906000526020600020905b8154815290600101906020018083116104fa57829003601f168201915b505050505090806001015490806002018054600181600116156101000203166002900480601f0160208091040260200160405190810160405280929190818152602001828054600181600116156101000203166002900480156105bb5780601f10610590576101008083540402835291602001916105bb565b820191906000526020600020905b81548152906001019060200180831161059e57829003601f168201915b505050505090806003018054600181600116156101000203166002900480601f0160208091040260200160405190810160405280929190818152602001828054600181600116156101000203166002900480156106595780601f1061062e57610100808354040283529160200191610659565b820191906000526020600020905b81548152906001019060200180831161063c57829003601f168201915b505050505090806004018054600181600116156101000203166002900480601f0160208091040260200160405190810160405280929190818152602001828054600181600116156101000203166002900480156106f75780601f106106cc576101008083540402835291602001916106f7565b820191906000526020600020905b8154815290600101906020018083116106da57829003601f168201915b5050505050908060050154908060060154905087565b600060606000339050600160008273ffffffffffffffffffffffffffffffffffffffff1673ffffffffffffffffffffffffffffffffffffffff16815260200190815260200160002060009054906101000a900460ff166000808373ffffffffffffffffffffffffffffffffffffffff1673ffffffffffffffffffffffffffffffffffffffff168152602001908152602001600020600001808054600181600116156101000203166002900480601f0160208091040260200160405190810160405280929190818152602001828054600181600116156101000203166002900480156108395780601f1061080e57610100808354040283529160200191610839565b820191906000526020600020905b81548152906001019060200180831161081c57829003601f168201915b5050505050905092509250509091565b606060003390506000808273ffffffffffffffffffffffffffffffffffffffff1673ffffffffffffffffffffffffffffffffffffffff16815260200190815260200160002060070180548060200260200160405190810160405280929190818152602001828054801561091157602002820191906000526020600020905b8160009054906101000a900473ffffffffffffffffffffffffffffffffffffffff1673ffffffffffffffffffffffffffffffffffffffff16815260200190600101908083116108c7575b505050505091505090565b6000339050600082905060008060008473ffffffffffffffffffffffffffffffffffffffff1673ffffffffffffffffffffffffffffffffffffffff16815260200190815260200160002060050154905060008060008573ffffffffffffffffffffffffffffffffffffffff1673ffffffffffffffffffffffffffffffffffffffff1681526020019081526020016000206006015490506000808573ffffffffffffffffffffffffffffffffffffffff1673ffffffffffffffffffffffffffffffffffffffff1681526020019081526020016000206007018390806001815401808255809150509060018203906000526020600020016000909192909190916101000a81548173ffffffffffffffffffffffffffffffffffffffff021916908373ffffffffffffffffffffffffffffffffffffffff16021790555050600182016000808673ffffffffffffffffffffffffffffffffffffffff1673ffffffffffffffffffffffffffffffffffffffff16815260200190815260200160002060050181905550600181016000808673ffffffffffffffffffffffffffffffffffffffff1673ffffffffffffffffffffffffffffffffffffffff168152602001908152602001600020600601819055505050505050565b828054600181600116156101000203166002900490600052602060002090601f016020900481019282601f10610b3157805160ff1916838001178555610b5f565b82800160010185558215610b5f579182015b82811115610b5e578251825591602001919060010190610b43565b5b509050610b6c9190610b70565b5090565b610b9291905b80821115610b8e576000816000905550600101610b76565b5090565b90565b600081359050610ba4816111a1565b92915050565b600082601f830112610bbb57600080fd5b8135610bce610bc982611044565b611017565b91508082526020830160208301858383011115610bea57600080fd5b610bf583828461114e565b50505092915050565b600081359050610c0d816111b8565b92915050565b600060208284031215610c2557600080fd5b6000610c3384828501610b95565b91505092915050565b600080600080600060a08688031215610c5457600080fd5b600086013567ffffffffffffffff811115610c6e57600080fd5b610c7a88828901610baa565b9550506020610c8b88828901610bfe565b945050604086013567ffffffffffffffff811115610ca857600080fd5b610cb488828901610baa565b935050606086013567ffffffffffffffff811115610cd157600080fd5b610cdd88828901610baa565b925050608086013567ffffffffffffffff811115610cfa57600080fd5b610d0688828901610baa565b9150509295509295909350565b6000610d1f8383610d3a565b60208301905092915050565b610d3481611118565b82525050565b610d43816110d0565b82525050565b6000610d5482611080565b610d5e81856110ae565b9350610d6983611070565b8060005b83811015610d9a578151610d818882610d13565b9750610d8c836110a1565b925050600181019050610d6d565b5085935050505092915050565b610db0816110e2565b82525050565b6000610dc182611096565b610dcb81856110bf565b9350610ddb81856020860161115d565b610de481611190565b840191505092915050565b6000610dfa8261108b565b610e0481856110bf565b9350610e1481856020860161115d565b610e1d81611190565b840191505092915050565b6000610e35602b836110bf565b91507f596f75206861766520616c72656164792072656769737465726564206f6e206f60008301527f757220706c6174666f726d0000000000000000000000000000000000000000006020830152604082019050919050565b610e978161110e565b82525050565b60006020820190508181036000830152610eb78184610d49565b905092915050565b6000604082019050610ed46000830185610da7565b8181036020830152610ee68184610db6565b90509392505050565b600060c0820190508181036000830152610f098189610db6565b9050610f186020830188610e8e565b8181036040830152610f2a8187610db6565b90508181036060830152610f3e8186610db6565b90508181036080830152610f528185610db6565b9050610f6160a0830184610d2b565b979650505050505050565b600060e0820190508181036000830152610f86818a610def565b9050610f956020830189610e8e565b8181036040830152610fa78188610def565b90508181036060830152610fbb8187610def565b90508181036080830152610fcf8186610def565b9050610fde60a0830185610e8e565b610feb60c0830184610e8e565b98975050505050505050565b6000602082019050818103600083015261101081610e28565b9050919050565b6000604051905081810181811067ffffffffffffffff8211171561103a57600080fd5b8060405250919050565b600067ffffffffffffffff82111561105b57600080fd5b601f19601f8301169050602081019050919050565b6000819050602082019050919050565b600081519050919050565b600081519050919050565b600081519050919050565b6000602082019050919050565b600082825260208201905092915050565b600082825260208201905092915050565b60006110db826110ee565b9050919050565b60008115159050919050565b600073ffffffffffffffffffffffffffffffffffffffff82169050919050565b6000819050919050565b60006111238261112a565b9050919050565b60006111358261113c565b9050919050565b6000611147826110ee565b9050919050565b82818337600083830152505050565b60005b8381101561117b578082015181840152602081019050611160565b8381111561118a576000848401525b50505050565b6000601f19601f8301169050919050565b6111aa816110d0565b81146111b557600080fd5b50565b6111c18161110e565b81146111cc57600080fd5b5056fea365627a7a723158202c3933d30cd6f3f5bf1076d864ba5f6228ac77da5a2924b9fa912143127b277d6c6578706572696d656e74616cf564736f6c63430005100040",
  "source": "/*\r\n    Handcrafted by: Shubham Gupta\r\n\r\n    About: This contract registers the lender and shows the registered information on user's profile page.\r\n*/\r\n\r\npragma solidity >=0.4.17 <0.7.0;\r\npragma experimental ABIEncoderV2;\r\n\r\ncontract Lender {\r\n\r\n    struct Lender_Info {\r\n\r\n        string name;\r\n        uint age;\r\n        string residentialAddress;\r\n        string mobileNo;\r\n        string aadharNo;\r\n\r\n        uint numberOfLoans;\r\n        uint activeLoans;\r\n        address[] receiver;\r\n    }   \r\n\r\n    event LenderRegistered(string _name, uint _age, string _address, string _mobile, string _aadhar, address sender);\r\n\r\n\r\n    mapping (address => Lender_Info) public lenders;\r\n    mapping (address => bool) lender_accounts; \r\n\r\n    //This function is used to save the information entered by the borrower during registraton.\r\n    function Set_Lender (string memory _name, uint _age, string memory _address, string memory _mobile, string memory _aadhar) public {\r\n\r\n        address uaddress = msg.sender;\r\n        \r\n        require(lender_accounts[uaddress] == false, \"You have already registered on our platform\");\r\n\r\n        lenders[uaddress].name = _name;\r\n        lenders[uaddress].age = _age;\r\n        lenders[uaddress].residentialAddress = _address;\r\n        lenders[uaddress].mobileNo = _mobile;\r\n        lenders[uaddress].aadharNo = _aadhar;\r\n\r\n        lenders[uaddress].numberOfLoans = 0;\r\n        lenders[uaddress].activeLoans = 0;\r\n\r\n        emit LenderRegistered (_name, _age, _address, _mobile, _aadhar, msg.sender);\r\n\r\n        lender_accounts[uaddress] = true;\r\n    }\r\n\r\n    //This function returns the stored information through address\r\n    function Get_Borrower_Address () view public returns (address[] memory receiver) {\r\n        address uaddress = msg.sender;\r\n\r\n        return (lenders[uaddress].receiver);\r\n    }\r\n\r\n    \r\n    function Login_Lender() view public returns (bool, string memory) {\r\n\r\n        address uaddress = msg.sender;\r\n        return (lender_accounts[uaddress], lenders[uaddress].name);\r\n    }\r\n\r\n    function Grant_Loan(address _receiver) public {\r\n        address uaddress = msg.sender;\r\n        address raddress = address(_receiver);\r\n        uint numberOfLoans = lenders[uaddress].numberOfLoans;\r\n        uint activeLoans = lenders[uaddress].activeLoans;\r\n\r\n        lenders[uaddress].receiver.push(raddress);\r\n        lenders[uaddress].numberOfLoans = numberOfLoans+1;  \r\n        lenders[uaddress].activeLoans = activeLoans+1;  \r\n    }\r\n}\r\n",
  "sourcePath": "C:/Users/hp/Desktop/lendingMarketplace/contracts/Lender.sol",
  "compiler": {
    "name": "solc",
    "version": "0.5.16+commit.9c3226ce.Emscripten.clang"
  },
  "schemaVersion": "3.0.22",
  "updatedAt": "2020-04-28T06:59:11.345Z",
  "networkType": "ethereum",
  "devdoc": {
    "methods": {}
  },
  "userdoc": {
    "methods": {}
  }
}